:020000040800F2
:100000009818012075030008395F0008FF4D0008AB
:10001000555E0008691200085D85000800000000B8
:10002000000000000000000000000000B102000815
:100030009D220008000000000D0300082D7100083B
:100040008F0300088F0300088F0300088F03000848
:100050008F0300088F0300088F0300088F03000838
:100060008F0300088F0300088F0300088F03000828
:10007000DD2100088F030008E92100088F03000834
:10008000ED2100088F0300088F0300088F0300088C
:100090008F0300088F0300088F0300088F030008F8
:1000A0000D720008517200083572000829720008AC
:1000B0005D72000869720008757200088F030008FD
:1000C0008F0300088F0300088F0300088F030008C8
:1000D0008F0300084D8200089182000825830008E4
:1000E0008F0300088F0300088F030008D5720008F3
:1000F00009730008ED720008E17200088F03000820
:100100008F0300088F030008817200088F03000826
:10011000F97800089D7900088F0300088D720008A7
:100120008F0300088F0300088F0300088F03000867
:100130008F0300088F0300088F0300088F03000857
:100140008F0300088F0300088F0300088F03000847
:100150008F0300088F0300088F03000869840008DC
:100160008F0300088F0300088F0300088F03000827
:100170008F0300088F0300088F0300088F03000817
:100180008F0300088F0300088F030008317A0008EE
:100190008F0300088F0300088F0300088F030008F7
:1001A0008F0300088F0300088F0300088F030008E7
:1001B0008F0300088F0300088F0300088F030008D7
:1001C0008F0300088F03000800F002F800F060F8C9
:1001D0000AA090E8000C82448344AAF10107DA45A2
:1001E00001D100F055F8AFF2090EBAE80F0013F094
:1001F000010F18BFFB1A43F001031847FCC00000B1
:100200001CC1000010F8013B0A4413F0030408BFAE
:1002100010F8014B1D1108BF10F8015B641E05D0DA
:1002200010F8016B641E01F8016BF9D1002D15D097
:1002300010F8014B03F00C030C2BA1EB04040ABFD4
:1002400010F8013BA4EB8314A4EB032405F1010394
:1002500014F8016B5B1E01F8016BF9D5914238BFB0
:1002600010F8013BD1D3704700230024002500265D
:10027000103A28BF78C1FBD8520728BF30C148BF09
:100280000B6070471FB50BF0AEFE1FBD10B510BD63
:1002900000F0A4F91146FFF7F5FF09F051FC00F05A
:1002A000C2F903B4FFF7F2FF03BC08F0FEF9000047
:1002B0002D4B19680868B0E8F04F80F30988BFF348
:1002C0006F8F4FF0000080F311887047000000002E
:1002D00008480068006880F308884FF0000080F349
:1002E000148862B661B6BFF34F8FBFF36F8F00DF24
:1002F00000BF00BF08ED00E0DFF80C00016841F42A
:1003000070010160704700BF88ED00E0EFF30980E5
:10031000BFF36F8F144B1A681EF0100F08BF20ED4B
:10032000108A20E9F04F106009B44FF0500072B607
:1003300080F31188BFF34F8FBFF36F8F62B60AF05F
:10034000FFFE4FF0000080F3118809BC19680868AF
:10035000B0E8F04F1EF0100F08BFB0EC108A80F329
:100360000988BFF36F8F704710000020EFF30580FE
:10037000704700000948804709480047FEE7FEE74C
:10038000FEE7FEE7FEE7FEE7FEE7FEE7FEE7FEE745
:1003900004480549054A064B70470000FD710008F6
:1003A000C901000898120120981801209814012012
:1003B0009814012053EA020C00F069802DE9F04BFB
:1003C0004FF00006002B1FBFB3FA83F503FA05F4C4
:1003D00024FA05F65E4012BF1643B2FA82F502FA1D
:1003E00005F4C5F120051EBF22FA05FC44EA0C0401
:1003F000203556EA044C4FEA144418BF641C4FF0F1
:1004000000084FF00009904271EB030C39D300292A
:1004100019BFB1FA81F701FA07F6B0FA80F700FACE
:1004200007F6C7F120071EBF20FA07FC46EA0C06B4
:100430002037B6FBF4FCA7EB0507103F07F01F0BB6
:10044000CBF120060CFA0BFB2CFA06F644BFB346A0
:100450000026202FA4BF5E464FF0000B5BEA060C7F
:1004600008BF4FF0010B19EB0B09ABFB027C48EB0B
:100470000608C01B06FB02CC0BFB03CC71EB0C0186
:10048000C1E70B46024641464846BDE8F08B13B52E
:100490004FF000004FF00001AFF30080BDE81C40BA
:1004A000704710B5203AC0F00B80B1E81850203AE0
:1004B000A0E81850B1E81850A0E81850BFF4F5AF04
:1004C0005FEA027C24BFB1E81850A0E8185044BF8E
:1004D00018C918C0BDE810405FEA827C24BF51F8FB
:1004E000043B40F8043B08BF7047D20728BF31F8EF
:1004F000023B48BF11F8012B28BF20F8023B48BF40
:1005000000F8012B7047431A28BF9A427FF6C9AF03
:10051000104410F0030F11441EBF11F8013D521E8C
:1005200000F8013D10F0030F7FF4F6AF103AC0F071
:100530000A8010B531E91850103A20E91850BFF47C
:10054000F9AFBDE81040530724BF31E9081020E996
:10055000081044BF51F8043D40F8043D12F0030F69
:1005600008BF7047D20728BF31F8023D48BF11F8D5
:10057000012C28BF20F8023D48BF00F8012C70472D
:100580004FF0000200B5134694469646203922BF2C
:10059000A0E80C50A0E80C50B1F12001BFF4F7AF77
:1005A000090728BFA0E80C5048BF0CC05DF804EB59
:1005B000890028BF40F8042B08BF704748BF20F8C7
:1005C000022B11F0804F18BF00F8012B70477047C5
:1005D0007047704700487047341201207546FFF796
:1005E000F9FFAE4605006946534620F007008546F0
:1005F00018B020B5FFF7CCFEBDE820404FF0000654
:100600004FF000074FF000084FF0000B21F00701FA
:10061000AC46ACE8C009ACE8C009ACE8C009ACE83D
:10062000C0098D46704710B50446AFF300802046E0
:10063000BDE81040FFF735BE0021022010B505F0DF
:100640001FFE64200AF070FC0021012005F018FE56
:10065000C8200AF069FC0121022005F011FE642087
:100660000AF062FC0121BDE81040084605F008BE12
:100670002DE9F04F2DED068B87B0DFEDC08AC04924
:100680001C226846FFF70DFFDFF8F492B7EE040A6C
:10069000DFEDBC0A0220B0EE681A89EC020AF2EE25
:1006A000080AC9ED028AB2EE080A05F0D5FB08F087
:1006B00087FEB54CDFF8D482B54D94ED098A10E081
:1006C00098F80800032816D298F80900022812D2D8
:1006D00098F8090078B198F8080060B102200AF093
:1006E00023FC94ED090A30EE480AB0EEC00A10EE81
:1006F000100AA842E4DB08F063FE08F0BDFEB0EE8D
:10070000401A0420F2EE080AB2EE080A05F0A4FB33
:10071000A04EA14DB2EE088A02E002200AF004FCCD
:10072000D5ED000A96ED020A70EE880AB4EEE00AF2
:10073000F1EE10FAF1D3DFF864B24FF0010A9848F5
:100740009FED980A984F80468BF800A0D0ED019A53
:10075000B1EE048A39EE809A39EEC0AA1AE002207E
:100760000AF0E2FB09F03CF9787810B938780128F2
:1007700003D086480188090702D088ED019A09E074
:100780007978012901D1397811B10088000B01D0A5
:1007900088ED01AA95ED000AD6ED020A30EE080AAE
:1007A000F4EEC00AF1EE10FAD9DCD4ED09AA08F093
:1007B0001DF81AE002200AF0B7FB09F011F9787869
:1007C00010B93878012803D070480188090702D091
:1007D00088ED019A09E07978012901D1397811B1C0
:1007E0000088000B01D088ED01AA94ED090A6F483A
:1007F00030EE6A0AB0EEC00A10EE101A8142D9DB60
:1008000008F0DEFD9FED6A0A94ED099AB0EE04AAA5
:1008100084ED030A36E002200AF086FB09F0E0F8D6
:10082000787810B93878012803D05848018809072A
:1008300002D039EE8A0A09E07978012901D13978A4
:1008400011B10088000B03D039EECA0A88ED010A05
:1008500094ED090A574930EE490AB0EEC00A10EE8D
:10086000100A884203DDB2EE0A0A84ED030A94ED11
:10087000090A514830EE490AB0EEC00A10EE101ACB
:1008800081420ADC95ED000AD6ED020A30EE480AF4
:10089000F4EEC00AF1EE10FABDDC07F099FFB2EEFB
:1008A0000E9A02E002200AF03FFBD5ED000A96ED19
:1008B000020A70EEC90AB4EEE00AF1EE10FAF1DCB9
:1008C0002F481C226946FFF7ECFD3D4FDFED3B9AB8
:1008D000C7ED049A87F803A002E002200AF024FB87
:1008E00095ED000AD6ED020A30EE490AF4EEC00A90
:1008F000F1EE10FAF1D94FF0000887F80380204993
:100900001C22C7ED049A6846FFF7CBFDB6EE000A3D
:1009100089ED000AC9ED018A89ED020A02E0022090
:100920000AF002FBD5ED000A96ED020A70EEC80A45
:10093000B4EEE00AF1EE10FAF1D302204546B0EE33
:10094000681AF2EE0A0AB2EE0A0A8BF8008005F085
:1009500083FA0B481C226946FFF7A3FD1948C4ED32
:10096000098AC4ED088A80F83050017841F004010A
:10097000017007B0BDEC068BBDE8F08F00000000F1
:10098000500F01206F12833B2C120020B811012060
:100990000000C841900D0120BC0000209C000020F8
:1009A00070120020CDCC2C409D0000200000A04003
:1009B0000000344200008C420000E842CDCCCC3F25
:1009C000D00000202C1101202DE9F04F2DED088BD7
:1009D00087B008F051FDB0EE401A0420F1EE080A8D
:1009E000B1EE080A05F038FA0121002005F048FCB4
:1009F000954C02200AF098FA08F0F2FF207A0428B9
:100A0000F7D902200AF090FA08F0EAFF207A0428C9
:100A1000F7D208F0D5FC8D491C226846FFF741FD4E
:100A2000DFED8B8A9FED8B9A884F0220F7EE089AB4
:100A3000B0EE498AC7ED008A87ED018AC7ED029AB8
:100A4000B0EE481AF1EE080AB1EE080A05F004FA11
:100A5000B0EE680A07F0FCFD9FED7FAAB3EE080A2E
:100A600087ED000A87ED018A022087ED02AAB0EE29
:100A7000481AF2EE0A0AB2EE0A0A05F0EDF9DFEDC5
:100A800077BADFF8DC910025764EC9ED04BA0EE0A6
:100A900008F0A6FF2088B0F5C07F05D125B9012553
:100AA00008F0EAFC86ED010A02200AF03DFA207AFD
:100AB0000428EDD3DFED6CAA0DB9C6ED01AA9FEDB8
:100AC0006BBA0420B34689ED04BA96ED011AF2EE32
:100AD0000A0AB2EE0A0A05F0BFF9654E654DB1EE9D
:100AE000048A02E002200AF01FFAD5ED000A96ED12
:100AF000020A70EEC80AB4EEE00AF1EE10FAF1D381
:100B000008F05EFC02200AF00FFA08F069FF207A74
:100B10000428F7D9DFF86081B2EE0A0A88ED030AEB
:100B200002200AF001FA08F05BFF207A0428F7D2CD
:100B3000B1EE080A88ED030A08F042FCB1EE040A9F
:100B400007F086FD0220B0EE491AF1EE080AB1EE78
:100B5000080AC7EC038A05F07FF9B0EE680A07F0CF
:100B600077FDB2EE080A87ED000A87ED019A0220B0
:100B700087ED02AAB0EE491AF3EE020AB3EE020ABA
:100B800005F06AF90027C9ED04BA08F019FCC2465D
:100B9000A0465C46DAED098A1BE000BF08F020FFA2
:100BA000B8F80000B0F5C07F05D127B9012708F0DB
:100BB00063FC84ED010A9AED090A304830EE680AB8
:100BC000B0EEC00A10EE101A81420ADC02200AF0D0
:100BD000ABF998F808104046042902D2007A0028A0
:100BE000DCD10FB9C4ED01AA89ED04BA042094ED5B
:100BF000011AF3EE070AB3EE070A05F02DF902E039
:100C000002200AF091F9D5ED000A96ED020A70EE85
:100C1000C80AB4EEE00AF1EE10FAF1D30220B0EE09
:100C2000491AF3EE070AB3EE070A05F015F914495D
:100C3000002008711C2205486946FFF732FC07B006
:100C4000BDEC088BBDE8F08FB8110120FC0E01202F
:100C500000000C42000000000000C843C3F5E83F5C
:100C6000D00000207012002000003443CDCCCC3FD7
:100C7000900D0120BC0000202C12002000007042CA
:100C8000E81100202DE9F04F2DED048B87B09FED8A
:100C9000BD8ABD491C224FF000086846FFF701FCE1
:100CA000DFF8E892B849B3EE090AD9ED058AF3EE08
:100CB000060A89ED050AB1EE021AC9ED020A81EDB4
:100CC000001A81ED018AB24EB24DB34C81ED028A19
:100CD0000AE02888C0F3C110032805D1D4ED090A21
:100CE00096ED000A09F0EAFA287A032802D2287A57
:100CF0000028EED1687A0128EBD0042094ED091A7F
:100D0000F3EE060AB3EE060A05F0A6F808F058FB63
:100D1000A24FB2EE089A02E002200AF005F9D7EDE0
:100D2000000A96ED020A70EE890AB4EEE00AF1EECE
:100D300010FAF1D307F05AFD0220B0EE481AF3EE94
:100D4000060AB3EE060A05F087F808F039FBDFF86B
:100D500050A2AB4699ED099A14E002200AF0E4F89B
:100D600001F0AAF9BBF80000C0F3C110032805D1B7
:100D700008F082FB8AED010A4FF001088948007AE9
:100D800006280AD299ED090A874930EE490AB0EEE1
:100D9000C00A10EE100A8842DFDB07F019FDB8F137
:100DA000000F03D194ED090A8AED010A0025042001
:100DB0009AED011AF3EE010AB3EE010A05F04CF8C0
:100DC000B1EE049AB04602E002200AF0ADF8D7ED89
:100DD000000A98ED020A70EE890AB4EEE00AF1EE1C
:100DE00010FAF1DC5E4602200AF09EF808F0F8FDE9
:100DF000307A0428F7D902200AF096F808F0F0FDBE
:100E0000307A0428F7D207F0F1FC0021084605F0FB
:100E100037FADFF898B103218BF804100220B0EE06
:100E2000481AF3EE060AB3EE060A05F015F808F0C4
:100E3000C7FA99ED090AB3EE040A07F009FC574610
:100E40000CE002200AF070F83088C0F3C1100328CB
:100E500004D108F011FB012587ED010A307A0A2838
:100E6000EFD31DB994ED090A87ED010A00258BF82F
:100E7000045007F0ADFC042097ED011AF2EE040ACD
:100E8000B2EE040A04F0E8FFDFF824A14FF4806614
:100E900002E005200AF048F83146504601F0C6FE4F
:100EA0000028F6D108F08CFAB2EE040A07F0D0FB65
:100EB00000F008FAFA200AF037F8D4ED090A98EDA4
:100EC000000A09F0FBF9FFF7B7FB08F079FA9FED8C
:100ED000390A0120B0EE481AF0EE400A04F0BCFFD7
:100EE000B1EE080A07F0B4FB00F0ECF964200AF058
:100EF0001BF80E2009F05EFE9FED2F0A06F0D4FCD1
:100F00004FF0804602E002200AF00EF808F0B4FA32
:100F1000D7ED000A30EEC00AB0EEC00A10EE100A9B
:100F2000B042F0DC25488078082814D10021022046
:100F300005F0A6F90021012005F0A2F9092009F029
:100F400039FE06F08DFC0121022005F099F90121FE
:100F5000084605F095F99FED1A0AFFF735FD0A4896
:100F60001C226946FFF79DFAC9ED058A84F83050C6
:100F7000207840F00400207007B0BDEC048BBDE881
:100F8000F08F000000000000500F01202C12002004
:100F9000900D0120B81101202C110120BC0000206F
:100FA00070120020C41101200000B442E81100209A
:100FB000000C02400000FAC400003343DC000020B3
:100FC000A0AA26442DE9F04352491C222DED028BA4
:100FD00087B06846FFF765FA52480121B3EE090A67
:100FE0004D4F002480ED020A4F484FF47A784B4E63
:100FF0004B4DDFF83891017014E0641CA4B24445F5
:1010000016D801F059F8B9F80000C0F3C110032850
:1010100005D1D7ED090A95ED000A09F04FF9022034
:1010200009F082FF7078012802D130780128E4D0DD
:1010300038480321DFED3E8ADFED3E0AC0ED028A2B
:101040003D4EB3EE040A3D4CB2EE008A80EC020A3B
:10105000317106E0B2EE080A00F008F9022009F04A
:1010600063FFD4ED000A95ED020A70EE880AB4EE33
:10107000E00AF1EE10FAEDD307F0B8FB07E000BF8D
:10108000B2EE080A00F0F2F8022009F04DFFD4EDAC
:10109000000A95ED020A70EEC80AB4EEE00AF1EE1D
:1010A00010FAEDDCB1EE048AD4ED000A95ED020AE7
:1010B00070EEC80AB4EEE00AF1EE10FA07D2B2EE12
:1010C000080A00F0D3F8022009F02EFFECE707F041
:1010D0007FFB002434710220B0EE681AF2EE0A0A97
:1010E000B2EE0A0A04F0B8FEB2EE040A07F0B0FA53
:1010F00008F066F907481C22694687F83040FFF778
:10110000D0F9387840F00400387007B0BDEC028B9D
:10111000BDE8F083FC0E01202C1101209D00002071
:10112000900D01202C1200209C000020C4110120F1
:10113000000000006F12833BE8110020BC0000207B
:10114000F0B53E491C222DED028B8FB0B0EE408AE7
:101150006846FFF7A6F93A491C2207A8FFF7A1F94C
:10116000DFED388A0220F3EE040AB0EE681AB3EE1F
:10117000040A04F071FE344C344D354E354F0FE007
:1011800000F09AFF3088C0F3C110032805D1D4EDD8
:10119000090A97ED000A09F091F8022009F0C4FE4F
:1011A000287A0428ECD9687A0128E9D024489FEDF0
:1011B0002A0AB0EE681A80ED000A80ED011A80ED6F
:1011C000021A0220F2EE080AB2EE080A04F044FE07
:1011D000224D0320224ED5ED098A307107F006FB1F
:1011E00006E0022009F0A0FEB2EE080A00F03EF888
:1011F00095ED090A30EE680AB0EEC00AB4EEC80AEE
:10120000F1EE10FAEDD317480025057045703571E1
:101210001C220B4807A9FFF744F984F8305007F067
:10122000D7FA06481C226946FFF73BF9207840F0C0
:10123000040020700FB0BDEC028BF0BD500F0120F8
:10124000FC0E0120000000002C110120B81101202B
:10125000C4110120900D012000000C422C1200202E
:10126000E8110020D0000020FEE7000010B52DEDB1
:10127000028BB0EE408A00F01FFF0F48017A04296C
:1012800004D2017A11B1407A012808D90B48F0EE56
:10129000480AB0EE480A90ED091A042006E09FEDD6
:1012A000081A0220F0EE480AB0EE480ABDEC028BA4
:1012B000BDE8104004F0D0BDC41101202C11012064
:1012C00000000000012010B509F0F6F8002101200F
:1012D00008F0C4FD0021022008F0C0FD0021032019
:1012E00008F0BCFD0021042008F0B8FD08F088FDDE
:1012F000024A034B07CA83E8070010BDECC200088E
:10130000D011012007F072FAFFF7DCFF022009F08C
:101310000BFEF9E7B5EEC00AF1EE10FA05D2B0EE19
:10132000C00ADFED020A30EEC00A70470000B44385
:101330000749002008B566224FF6FF73C871694659
:1013400004488DF80020012203F007FD08BD0000CD
:10135000A90000205C0C01200749002008B5662286
:101360004FF6FF738871694604488DF8002001220A
:1013700003F0F3FC08BD0000A9000020E40C0120EC
:101380002DE9F04FF84F4FF00109F64C781DF74E5C
:101390002DED088B91B0017804F134000090B9B9BB
:1013A000B87818B994ED0B0A86ED020AEE48401D94
:1013B000011D097880F80090207F08F07FF800EB8D
:1013C0004001EB48182200EBC1010098FFF769F8D3
:1013D000DFEDE88ADFF8A0A34FF0000B3879B1EE1B
:1013E000049A9FEDE68ADF49DFF894831C3101916E
:1013F000012802D000287CD044E120790B2804D0B9
:101400000C280AD0092818D022E0207F0C281FD1F0
:1014100094F834000D2817D01AE0207F0D2802D050
:101420000B2805D014E094F834000E280CD00FE0FF
:1014300094F834000A2807D00AE0207F0A2807D150
:1014400094F834000B2803D1C4ED0B8AC6ED028A50
:10145000CC49F2EE089A9FEDCCAAC34DE06AED1D8F
:1014600088420DD1297805290AD2B0EE080ADFEDAD
:10147000C70A8AED000A8AED018ACAED020A14E061
:10148000C34988420BD12878052808D29FEDC10AAC
:101490008AED009A8AED018A8AED020A05E0CAED1A
:1014A000009A8AED018A8AED02AA022009F004F866
:1014B000208DF6EE000A00EE100A96ED091AB8EE3D
:1014C000400AB0EEC11A20EE200AB4EEC01AF1EEC6
:1014D00010FA01DBF978A1B300EE100ADFEDAE0AD5
:1014E000B8EE401A96ED090A61EE200AB0EEC00A85
:1014F00000E083E0B4EEE00AF1EE10FA44DB87F896
:1015000004B007F0B9FFD4ED0F0A08F0E1FEB0EE29
:10151000C00A10EE100AA14988420FDBD4ED0F0A71
:1015200094ED090A08F0D4FEB0EEC00A10EE100ADD
:101530009A49884202DB206AC00216D594ED0B0A54
:101540001BE0FFE7206A410203D5954981F800902E
:1015500008E0010201D5022102E0C00102D5032109
:101560008F48017087F803908CE0CAED009A8AEDED
:10157000018AB3EE090A8AED02AA86ED020A85F80D
:1015800001B085F800B07DE094ED090AD4ED030ABE
:10159000B4EE600AF1EE10FA74D0207F212871D0E9
:1015A00031286FD000F088FD7E48018831F47071D9
:1015B00005D02878401C287085F801B012E000881A
:1015C00010F4C07F687801D0401D00E0401C6870B6
:1015D000C0B2192806D385F800B094ED0B0A86ED49
:1015E000020A4FE0287805284CD394ED0B0AF7EE59
:1015F000080A80EE201A86ED021A43E094F83000C3
:1016000008F08EFB207841073FD401067DD4800688
:101610007CD400F051FD634D13E0022009F084FCFE
:1016200000F04AFD208CC0050BD52888C0F3C110FE
:10163000032806D15C48D4ED090A90ED000A08F0B1
:101640003DFE07F0F9F80028E7D0207F062810D1EA
:1016500094F8340007280CD19FED540AD4ED0B0AFE
:101660000220B0EE481A20EE800AF0EE400A04F0A4
:10167000F3FB0D2009F09EFA88ED008A207840F0F7
:1016800004002070207840073FD537482178083083
:1016900021F004012170C11E0978085CFF285FD089
:1016A00007F0EAFED4ED0F0A08F012FEB0EEC00A11
:1016B00010EE100A394DA84242DBD4ED0F0A94ED2A
:1016C000090A08F005FEB0EEC00A10EE100AA842A2
:1016D00036DB206AC10233D4217F81B308292FD0A1
:1016E0002149491D4A1C0978895C1D2928D01E29D9
:1016F00026D0202924D02E490978012920D02D4D2B
:10170000C103B6EE080A70D501E0FDE3FDE39AEDF2
:1017100000AADAED059ACAED008A8AED018A8AEDFF
:10172000029AD6ED020A40F4006120EE800A8AEDAA
:10173000050A216294ED0F0A85ED010AC6E0FFE774
:101740001B495D4681F800B087F80490207F0A2885
:1017500032D00B2835D01A2848D002284BD04EE082
:10176000FEE300002C110120E90000202C120020D3
:10177000A405002000008C42FC0E012000000000A7
:10178000E811002000008C420000C8430000FA422B
:1017900000007042000048433333333F00002041D3
:1017A000E0110020C4110120900D01206666663F03
:1017B000D20000207012002094F83410092906D0BD
:1017C0001DE094F834100A2901D00C2917D107F034
:1017D00053FEB0EE401A94ED110A0420F0EE400AD8
:1017E00004F03AFBB2EE040A3CE087E094F83410CF
:1017F0001B290AD003E094F83410012905D021797F
:10180000092904D00E2909D00AE0062110E00A288F
:1018100006D194F834000B2809D071E30D2802D0CA
:101820001A280ED06CE394F834000C28F5D1072167
:1018300088F80410B3EE040A06F00AFF88F8045092
:101840005EE394F834001928E7D107F015FEB0EEF6
:10185000401A94ED110A0420F0EE400A04F0FCFA5C
:10186000B1EE040A06F0F4FE94ED110A0220B0EE87
:10187000481AF0EE400A04F0EFFA41E3022009F0C2
:1018800053FB08F0ADF8FE48417A01291ED10088CB
:1018900010F4707F1AD007F0EFFDF0EE400A95EDDE
:1018A000010A08F015FDF0EEC08A95ED010AD4EDAD
:1018B000090A08F00DFDB0EEC00AF5EE000A20EEB0
:1018C000200AF4EEC08AF1EE10FA0ED307F0D4FD30
:1018D000F0EE400A95ED010A08F0FAFCB0EEC00AFD
:1018E00010EE100AB0F1814FC8DC216A21F40061CA
:1018F00021628AED00AACAED059A01E3810367D54A
:10190000D6ED090ADAED00AA9AED05AACAED008A19
:101910008AED018A8AED029AD6ED020A40F48051DE
:1019200020EE800A8AED050A216294ED0F0A85ED0A
:10193000010A33E0022009F0F7FA08F051F8D04824
:10194000417A01292AD1008810F4707F26D0D4ED85
:10195000090A95ED010A08F0BBFCB0EEC00A10EED2
:10196000100A0AF0CFFA9FEDC71B53EC112B0AF0B7
:10197000CBF941EC190B07F07FFDF0EE400A95ED35
:10198000010A08F0A5FCB0EEC00A10EE100A0AF039
:10199000B9FA53EC192B0AF07BF910D307F06CFD60
:1019A00095ED011AF0EE400AB0EE410A08F090FC05
:1019B000B0EEC00A10EE100AB0F1814FBADC216A15
:1019C00021F480512162CAED00AA8AED05AA97E2AE
:1019D0008005F0EE008A9FEDADAB0CD4D4ED0F0A7C
:1019E00094ED090A08F074FCB0EEC00A10EE100A7B
:1019F000A849884273DDB2EE0E0A86ED030A07F0AD
:101A00003BFD042085ED010A08F056FD20793128C0
:101A100013D0E0B12F2824D030282CD0052834D082
:101A200012283CD0102842D02A284AD0132850D05F
:101A3000172863D02B286BD071E0207F30286ED11F
:101A400094F834002C286AD1B3EE0C0A69E0207FA8
:101A50000A2864D194F83400092860D1B2EE0E0A45
:101A60005FE0207F2E285AD194F834001C2856D1EC
:101A7000B3EE070A55E0207F2C2850D194F83400AB
:101A800025284CD1B3EE040A4BE0207F062846D12E
:101A900094F83400072842D1B3EE0E0A41E0207FCB
:101AA0000F283CD194F834001028E1D037E0207F93
:101AB0000F2834D194F83400112830D1B3EE090A3C
:101AC0002FE0207F2B282AD194F834002128E3D05E
:101AD00025E0207F0C2803D00A2808D01FE0ABE0C7
:101AE00094F834000B281AD19FED6B0A19E094F892
:101AF00034000928B2D00B28CED010E0207F18285F
:101B00000DD194F83400132809D1B3EE0A0A08E085
:101B1000207F212803D194F834002F28CED0B3EEB3
:101B2000060A06F095FDFFF7CDFB642009F0FCF9ED
:101B30005A491C2202A8FEF7B4FCD6ED050A217909
:101B40005648FCEEE00A0529B3EE040A10EE901A9E
:101B500001F0FF0A06D1217F062903D194F8341041
:101B6000072911D086ED050AC0ED008AF2EE040ABD
:101B700080ED018AC0ED020A94ED0F0A032085ED85
:101B8000000A08F099FC3CE0C0ED008A80ED018A73
:101B9000F2EE020A80ED020AC6ED060AECE7022028
:101BA00009F0C2F900F088FA3D48417A012928D1AC
:101BB000008810F4C07F24D0D4ED090A95ED000A06
:101BC00008F086FBB0EEC00A10EE100A0AF09AF98F
:101BD00053EC1A2B0AF098F841EC190B07F04CFC67
:101BE000F0EE400A95ED000A08F072FBB0EEC00A74
:101BF00010EE100A0AF086F953EC192B0AF048F897
:101C00000ED307F039FCF0EE400A95ED000A08F01B
:101C10005FFBB0EEC00A10EE100AB0F1804FBEDCE0
:101C200000EE10AA1D481C2202A9B8EE400A86ED5B
:101C3000050AFEF736FC63E11A491C2209A8FEF7E3
:101C400030FC184896ED06BAB3EE060AC0ED008ADD
:101C500080ED018A80ED020A207F02282ED02179B2
:101C6000042905D10B2803D194F834000C2825D081
:101C7000D4ED0F0A94ED090A08F02AFB14E00000E5
:101C8000B8110120000000000000D03F000000401B
:101C90003333C33F0000B44200002042340F012020
:101CA000C4110120500F0120B5EEC00AF1EE10FA68
:101CB00002DDB3EE0E0A01E09FEDF00AF04886ED7A
:101CC000060AD4ED090A90ED000A08F0F7FA04209C
:101CD00094ED091AF3EE090AB3EE090A04F0BCF810
:101CE0002079042813D005281BD0092823D03128B7
:101CF0002BD0A0B30A283DD00C2843D0132853D0B2
:101D000017287DD018287CD01F287BD066E0207F44
:101D10000B2863D194F834000C285FD1B2EE020A8C
:101D20005AE0207F062859D194F83400072855D16D
:101D3000B2EE0E0A50E0207F0A284FD194F834000A
:101D400013284BD1B1EE040A46E0207F302845D15C
:101D500094F834002C2841D1B0EE080A3CE0FFE7AB
:101D6000207F0A283AD194F83400132836D1B2EEF5
:101D7000000A31E0207F0B2830D194F83400052888
:101D8000D6D02BE0207F192802D00D2805D025E0E1
:101D900094F834001A28DFD020E094F834000828A2
:101DA0001CD1B2EE080A17E0207F192802D00A28B9
:101DB00007D013E094F834001A280FD1B1EE000ACE
:101DC0000AE094F83400092801D018B106E0B3EE17
:101DD000040A01E0B3EE0E0A06F03AFC07F04CFBF1
:101DE000F0EE408AD4ED0F0A94ED090A08F070FA7B
:101DF00078EE800AA3499FEDA40AC5ED010A02E02E
:101E00000CE013E01AE0D5ED010A10EE900A8842CA
:101E100019DDD5ED010A30EEC00A1FE0207F182839
:101E2000DCD194F834001328C8D0D7E7207F0A28E3
:101E3000D4D194F834000028C0D0CFE7207F1828F0
:101E40003FF47CAFCAE7D5ED010A904910EE900A45
:101E5000884205D3D5ED010A30EE800A85ED010AEE
:101E60004FF0814A07F008FBD5ED010A08F030FA7F
:101E7000B0EEC00A10EE100A504531DD022009F024
:101E800053F800F019F98248417A0129EAD1008813
:101E900010F4707FE6D0D4ED090A95ED010A08F040
:101EA00017FAB0EEC00A10EE100A0AF02BF853EC45
:101EB0001A2B09F029FF41EC190B07F0DDFAF0EEBF
:101EC000400A95ED010A08F003FAB0EEC00A10EEE0
:101ED000100A0AF017F853EC192B09F0D9FEC1D2F9
:101EE0001C2102A8FEF74CFB6A481C2202A9FEF73F
:101EF000D8FA69481C2209A9FEF7D3FA86ED06BA7A
:101F00005D469FED660A01E05DE05FE087F80490C2
:101F100086ED0B0A87F803B006F05AFC022008F0A1
:101F2000CBFA01991822201DFEF7BBFA1822DDE931
:101F30000010FEF7B6FA5A4B94ED0B0A1A1D86ED07
:101F4000020A19780846401C515C1870207F07F07F
:101F5000B5FA00EB40015348182200EBC10100E044
:101F60001FE00098FEF79DFA207F172803D194F810
:101F7000340018280ED088ED008A4046057107F01D
:101F80001FFA494805703D707D70207820F00400EC
:101F9000207018E0454890ED070A404688ED000A99
:101FA000ECE7414986ED028A86ED038A81F800B0AC
:101FB000FFF788F9022008F0B7FF394887F8049046
:101FC0004178491C41702078800626D588ED008A2A
:101FD00087F8049018220199201DFEF762FA304A12
:101FE000131D11780846401C595C1070207F07F0C3
:101FF00065FA00EB40012B48182200EBC101009864
:10200000FEF74FFA20789FED2A0A20F0200020707A
:10201000022086ED020A08F04FFA2078000627D544
:102020001F4A88ED008A87F80490111D1078431C20
:10203000095C1370207F07F041FA00EB400119485A
:10204000182200EBC1010098FEF72BFA207820F04F
:102050008000207007F0B4F99FED160A022086ED8B
:10206000020A11B0BDEC088BBDE8F04F08F024BAAD
:1020700011B0BDEC088BBDE8F08F000000000C42F1
:10208000900D0120000034430000B443000034C32D
:10209000C4110120C00F0120500F01209A99193F4F
:1020A000EE000020A4050020E0110020781101209E
:1020B00000005C42000070422DE9F04700254248D4
:1020C0004FF480494FF6FF762C46494600F0AEFDAE
:1020D0003E4F86EAC0362021384600F0A7FD86EA4A
:1020E00080363846B91500F0A1FD86EA40363846FC
:1020F000102100F09BFD86EA00363846802100F072
:1021000095FDDFF8CC8086EAC0268021404600F0AD
:102110008DFD86EA80263846402100F087FD2D4F50
:1021200086EA40264FF40041384600F07FFD86EAFB
:1021300000264046202100F079FD86EAC016404680
:10214000012100F073FD86EA80164046102100F060
:102150006DFD86EA40163846082100F067FD86EAE4
:1021600000164046082100F061FD86EAC0063846A8
:10217000042100F05BFD86EA80064046022100F063
:1021800055FD86EA40064946384600F04FFD1249A3
:1021900070400880012300200E8803FA00F73E42B9
:1021A0000AD00E88471C04F1010403FA07F2164214
:1021B000E4B201D16D1CEDB2401CC0B21028EBD3CB
:1021C0004D720C72BDE8F08700100240000402401E
:1021D000000C024000080240C4110120014800F038
:1021E00081BA00000C18002070470000014800F080
:1021F00079BA00006C18002001681823CAB2103A9E
:10220000B2FBF3F2054B6FF30901032A9B5CC36534
:1022100000D9091D8165084670470000FABF000813
:1022200010B583694FF0C074826A0146002053B133
:10223000B3F5005F15D072B1012A0CD0022A0AD082
:10224000032A09D104E01AB1012A06D0022A03D1D7
:10225000C96AC90100D5012010BDC96AA142FAD0DE
:1022600010BD002AF7D0012AF2D0022AF3D0032AA7
:10227000F3D010BD30B50468256825F480252560AD
:10228000046863608368402B036803D0996000682A
:10229000C26030BD9A600068C16030BD7047000008
:1022A0001848002110B501F08BFE1648042101F0FA
:1022B00087FE144801F094FC1348002101F080FED1
:1022C0001148042101F07CFE0F4801F089FC0F4801
:1022D000002101F075FE0D48042101F071FE0B484C
:1022E00001F07EFC0A48002101F06AFE0848042142
:1022F00001F066FE064801F073FCBDE81040054899
:1023000001F06EBC7C120020C812002014130020C3
:10231000AC1300209014002072B6FEE72DE9F047C0
:102320002DED028B96B09FED738A002414210AA82C
:10233000FEF726F9142102A8FEF722F900236E4DBC
:102340000DF1280918460DF1080819460FAE0F9334
:10235000CDF8403001EB410205EB8202177A1FB144
:10236000177A022F04D011E0621C3155D4B20DE06F
:1023700092ED010A09EB800708EB800C87ED000A5B
:1023800092ED000A401C8CED000AC0B2491C0529E0
:10239000E0DB032C04D284424FF07E5219D3FCB10F
:1023A000002009E0315C401C01EB410105EB81019B
:1023B00091ED010A30EE088AA042F3DB00EE104AEC
:1023C000F8EE400A88EE200A16B0BDEC028BBDE89C
:1023D000F0872CB1002192461193129311AB61E06A
:1023E000C8B3012804D00021089308AC09931FE06A
:1023F0009DED0A0AE8E700BF4B1C08EB810514E0DD
:1024000008EB830695ED000AD6ED000A30EE600A6F
:10241000B0EEC00A10EE106A964205DC665C761CCF
:102420006654E65C761CE6545B1C8342E8DB491C80
:102430008142E1DB00259DF820102A4605E0A35CDF
:102440008B4201D91946D5B2521C8242F7DB11B139
:1024500009EB85004BE0FFE7B0EE480AB4E700BFA8
:102460004A1C08EB81071AE008EB820C97ED000A82
:10247000DCED000A30EE600AB0EEC00A10EE10CAC1
:10248000D4450BDC13F801C00CF1010C03F801C0BA
:1024900013F802C00CF1010C03F802C0521C824276
:1024A000E2DB491C8142DBDB00279DF844103A4601
:1024B00007E000BF13F802C08C4501D96146D7B2CE
:1024C000521C8242F6DB491C8C420ED3002009E0EC
:1024D000315C401C01EB410105EB810191ED010AEA
:1024E00030EE088AA042F3DB68E709EB870090ED45
:1024F000000A69E700000000F011002070B5224CCE
:10250000224D2DED028BB0EE408A607810B1FFF7BE
:1025100005FF02E01E4890ED010A1B4885ED020A06
:1025200008301C4990ED000A184885ED060A08F0AD
:102530006BF810EE100A184984ED010A884202DB9C
:102540009FED160A06E010EE100A1549884203D3E3
:102550009FED140A84ED010A9FED131AB0EEC80A2C
:102560001248C0EE010A94ED010A20EE800A84EDC3
:10257000010A78EE400A38EE001AC0ED000A80ED3C
:10258000011ABDEC028B70BDE0110020880F012004
:10259000B8110120FC0E01200000C8420000C84212
:1025A0000000C8C20000C8C2000048422C1200202F
:1025B0007CB50125DD2228469821009501AB02F06B
:1025C0003FFC9DF80440DD2298210095002001ABDE
:1025D00002F036FC9DF8040044EA00207CBD0000B7
:1025E00000B587B014216846FDF7CAFF0C480168A2
:1025F00041F010010160006800224FF4465100F0E4
:10260000100005900120CDE90202CDE90010054837
:10261000694600F0E7F9002003F00EFF07B000BDA7
:1026200030380240001002402DE9F041876D044629
:1026300000F00EFB064694F835000025022806D06F
:1026400080206065012084F83450BDE8F081206866
:10265000016821F0160101602068416921F08001C4
:102660004161206C08B9A06C20B12068016821F09C
:10267000080101602068016821F0010101600CE09F
:1026800000F0E6FA801B052807D9202161650320A8
:1026900084F8350084F83450D7E720680068C00714
:1026A000EED194F85C203F2001219040B86084F87E
:1026B0003510002084F83450C7E790F8351002290F
:1026C00003D08021416501207047052180F8351035
:1026D0000068016821F00101016000207047406D31
:1026E000704700002DE9F84304464FF00009644BA1
:1026F0000820CDF800904FF41652A56D94F85C10A8
:102700001B682E68B3FBF2F700FA01F131420FD0DB
:1027100021680A6852070BD50A6822F004020A6091
:1027200094F85C108840A860606D40F0010060651E
:1027300094F85C104FF0010808FA01F0304208D01C
:1027400021684969090604D5A860606D40F002005F
:10275000606594F85C1004208840304208D02168FD
:102760000968890704D5A860606D40F004006065C1
:1027700094F85C1010208840304218D02168096815
:10278000090714D5A86020680168490304D50068CA
:10279000000308D5A16C07E00168C90503D40168EE
:1027A00021F008010160216C09B12046884794F8A6
:1027B0005C1020208840304231D021680968C90669
:1027C0002DD5A86094F8350005282068016806D04A
:1027D000490347D5006800031DD4616C1CE021F05B
:1027E000160101602068416921F080014161206C7F
:1027F00008B9A06C20B12068016821F008010160CF
:1028000094F85C303F229A40AA6084F8358084F8BE
:102810003490216D1FE0E16B09B120468847606D5F
:1028200000282BD0606DC00714D0052084F8350037
:102830002068016821F0010101600098401C0090AF
:10284000B84203D820680068C007F6D184F8358004
:1028500084F83490E16C002910D001B02046BDE826
:10286000F04308470168C905D5D4036823F0100375
:10287000036084F8358084F83490CCE7BDE8F883B1
:102880000C0000202DE9F047044600F0E1F9054670
:1028900064B102214FF0000984F8351084F83490B7
:1028A0002068016821F0010101600EE00120BDE80F
:1028B000F08700BF00F0CCF9401B052805D9202186
:1028C0006165032084F83500F1E720680068C007DF
:1028D000F0D1D4E90020D4E90251D4E9043C2843E2
:1028E00004F1180519430843116895E8E00140EA2E
:1028F0000C001C4B2843194040EA060040EA070040
:10290000B8F1040F40EA010003D1D4E90B131943D5
:102910000843106020680126656A4069042D20F094
:10292000070045EA00050CD1D4E90A01054341B18D
:102930002046FFF775FC20B14020606584F83560C3
:10294000B4E7206845612046FFF756FC94F85C30F8
:102950003F229A408260C4F8549084F83560002089
:10296000A5E700003F8010F02DE9F041044690F803
:10297000340000250128A66D0ED094F835C001273B
:10298000002084F83470BCF1010F07D0022584F8D0
:1029900034002846BDE8F0810220FBE7022784F8D6
:1029A000357060652046FFF765FC94F85C103F20A9
:1029B0008840B0602068016841F01601016020681D
:1029C000416941F080014161206C20B120680168BB
:1029D00041F0080101602068016841F001010160D7
:1029E000D7E700002DE9F84FDFF80CB201240325EA
:1029F0004FF00F0A00220BF1040E00BF0B6804FA1F
:102A000002F63340B34278D10F7907F00307012F64
:102A100001D0022F1AD187684FEA4209D1F80CC0C1
:102A200005FA09F827EA08070CFA09FC4CEA070C32
:102A3000C0F808C0476891F804C0B743CCF3001C45
:102A40000CFA02FC4CEA070CC0F804C00E79F643FD
:102A5000B6070BD0C6684FEA420C8F6805FA0CF82F
:102A600026EA080607FA0CF73743C7600E7906F026
:102A70000306022E12D1D6084FEA427800EB8606F2
:102A800000960F69D6F820904FEAD8660AFA06FC3D
:102A9000B74029EA0C063743009E37620F79066873
:102AA0004FEA420C07F0030705FA0CF807FA0CF797
:102AB00026EA0806374307604E6816F4403F1CD0EC
:102AC0004E4E376847F480473760366822F0030877
:102AD000970706F480460096494E3F0F4644B1469C
:102AE000D6F80868DFF81C810AFA07FC404526EA98
:102AF0000C0603D14FF0000C41E076E0DFF808C18E
:102B0000604502D14FF0010C39E0DFF800C16045AB
:102B100002D14FF0020C32E0DFF8F4C0604502D180
:102B20004FF0030C2BE0DFF8ECC0604502D14FF012
:102B3000040C24E0DFF8E0C0604502D14FF0050C42
:102B40001DE0DFF8D8C0604502D14FF0060C16E05A
:102B5000DFF8CCC0604502D14FF0070C0FE0DFF882
:102B6000C4C0604502D14FF0080C08E0DFF8B8C0DF
:102B7000604502D14FF0090C01E04FF00A0C0CFA4D
:102B800007FC4CEA060CC9F808C84F68DBF800607F
:102B9000FF0226EA030600D51E437746CBF8006005
:102BA000D1F804C0DEF800605FEA8C2C26EA030648
:102BB00000D51E43DFF840C03E60ACF1040C4F6806
:102BC000DCF80060BF0326EA030600D51E430A4F67
:102BD000CCF80060083FD1F804C03E685FEACC3C06
:102BE00026EA030600D51E433E60521C102AFFF45D
:102BF00005AFBDE8F88F0000083C014044380240B2
:102C00000030014000000240000402400008024081
:102C1000000C024000100240001402400018024064
:102C2000001C0240002002400024024000690840CD
:102C300000D001207047426921EA02030A4043EABA
:102C40000241816170470AB1816170470904FBE765
:102C50000148806870470000000000200248816839
:102C6000027811448160704700000020032010B5F5
:102C700000F09AF80F2000F005F800F04FF800205F
:102C800010BD000030B505461F4887B0016841F40B
:102C900080710160006806A900F48070009001A8AE
:102CA00000F0E0FB0498B0B100F0FCFB4000174AD4
:102CB0000021174BB0FBF2F2164840F2E7340360F4
:102CC000C0E90341521EC0E90121816100F0A2FE6A
:102CD000040003D015E000F0E5FBE8E70D4800F044
:102CE0007FFF04000DD12D2000F030F8102D07D209
:102CF000002229462D2000F037F80748056000E043
:102D0000012407B0204630BD4038024040420F0049
:102D100000200040CC180020040000200A4808B51C
:102D2000016841F080510160006800F0805000901F
:102D30000548001D016841F480410160006800F40D
:102D40008040009008BD000040380240002809DBA8
:102D5000410900F01F028900012001F1E0219040AB
:102D6000C1F80001704700000E4BF0B41B680D461F
:102D7000C3F30223C3F10706042E00D90426191D4C
:102D8000072901D2002300E0DB1E012404FA06F12A
:102D90009C40491E2940641E994014402143F0BCC8
:102DA00005F072BC0CED00E0064900F0070210B51A
:102DB0004FF6FF040868044B204040EA0220184305
:102DC000086010BD0CED00E00000FA051848F8B5E9
:102DD000016841F0805101600068164C00F080509D
:102DE0000090206840F480302060FFF731FF4FF4FE
:102DF0007A76054605E000BFFFF72AFF401BB04288
:102E00000FD86068C003F7D5206840F40030206018
:102E1000FFF71EFF054606E0FFF71AFF401BB04212
:102E200001D90320F8BD60688003F5D50020F8BD06
:102E300040380240007000402DE9F84F0446007809
:102E4000DFF824944FF000063746C0070ED0D9F8BB
:102E5000001021F40001C9F80010D9F80010626BCD
:102E60001143C9F80010606B00B90126FE4D2068BF
:102E7000843500030ED5E16B286820F44010084328
:102E80002860E06BB0F5801F01D010B102E0012690
:102E900000E0012720684FF4800BC0020CD5216CA4
:102EA000286820F4400008432860206C584501D170
:102EB000012601E000B901272068C10100D50126E3
:102EC000800666D5E8483830016841F080510160DD
:102ED0000068DFF898A300F080500090DAF8001046
:102EE00041F48071CAF80010FFF7B2FE804605E099
:102EF000FFF7AEFEA0EB080064287DD8DAF80000EA
:102F0000C005F5D5DFF8608308F16808D8F800003F
:102F100010F440702AD0218E01F44071814225D0F6
:102F2000D8F80010D8F8002021F4407142F4803223
:102F3000C8F80020D8F8002022F48032C8F8002019
:102F4000C8F80010D8F80000C0070FD0FFF780FEC7
:102F5000824607E0FFF77CFEA0EB0A0141F28830D1
:102F60008142CAD8D8F800008007F3D5206BC0F39F
:102F7000012103297ED0D9F8001021F4F811C9F8F5
:102F80000010228ED8F80010C2F30B021143C8F8CB
:102F900000102078C00607D5286820F080702860CF
:102FA0002868A16B084328602188AF48883049040D
:102FB00005D5626E016821F440311143016021881A
:102FC000090405D5A26E016821F440211143016076
:102FD0002168C90305D5E26E016821F4401111434F
:102FE00001602168890305D5226F016821F4400141
:102FF00011430160217800E016E1490605D5626CB5
:10300000016821F00301114301602178090605D50B
:10301000A26C016821F00C01114301602188C905EF
:1030200005D5E26C016821F030011143016021886F
:10303000890505D5226D016821F0C00111430160A9
:103040002188490505D5626D016821F4407111435D
:1030500001602188090505D5A26D016821F4406150
:10306000114301602188C90407D5E26D016821F48C
:10307000405100E04AE0114301602188890405D5F0
:10308000226E016821F44041114301602168490228
:1030900005D5A26F016821F08061114301602168AC
:1030A0004FF0006A890209D5E26F016821F00061E2
:1030B00011430160E16F514500D1012721680A07E2
:1030C00000D50127490305D5626F016821F04071E1
:1030D000114301602168090206D5D4F880200168F7
:1030E00021F0805111430160DFF88491012E02D05C
:1030F000206880017ED5D9F800004E4620F080601F
:10310000C9F80000FFF7A4FD80460FE0594AD9F83E
:103110000030104023F4F8120243C9F8002030E7D1
:10312000FFF796FDA0EB080064287DD83068000109
:10313000F6D421784C487C30C90712D0616B81B934
:10314000237A62680168D0F800C09201C1F301419E
:1031500042EA0142CCF3036142EA016141EA0371B0
:10316000016021680A0303D5E26BB2F5801F04D029
:10317000C9021AD5216C594517D16368016894F8C2
:103180000CC002689B01C1F3014143EA0141C2F353
:10319000027241EA0C6141EA027101602968626AC7
:1031A00021F01F01521E114329602168C90110D569
:1031B000238A62680168D0F800C09201C1F30361FC
:1031C00042EA034242EA0162CCF3027142EA01712F
:1031D0000160216889010CD56168228A237B94F8FB
:1031E00008C0890141EA024141EA036141EA0C71E8
:1031F000016000E011E03168B04641F0806131606B
:10320000FFF726FD064604E0FFF722FD801B642839
:103210000AD8D8F800000001F6D56FB3D9F800003D
:103220004E4620F0805000E07BE0C9F80000FFF738
:103230000FFD074605E000BFFFF70AFDC01B64282D
:103240006FD83068C0438000F6D5074821688030C9
:103250000A0301D5E26B1AB1C90225D5216C19BB4D
:1032600063690168277E08E008380240007000406A
:1032700000380240FFFCFF0F5AE00268C1F3014131
:103280009B0143EA0143C2F3027143EA076242EA47
:103290000171016029686FF0FF03A26A21F4F851FF
:1032A00003EB0222114329602168890212D5E16FE4
:1032B00051450FD1238C6269016807689201C1F3FF
:1032C000036142EA034242EA0162C7F3027142EA41
:1032D000017101602178090716D561690268D0F88B
:1032E00000C08B01277FC2F30362CCF3014143EAA4
:1032F000014141EA026141EA077101602868E16A1F
:1033000020F4403008432860306840F0805030603E
:10331000FFF79EFC044607E0FFF79AFC001B6428B9
:1033200002D90320BDE8F88F3068C0438000F3D491
:103330000020F7E72DE9F04705000F4663D0444E23
:10334000306800F00F00B84209D2306820F00F005A
:1033500038433060306800F00F00B84253D128681D
:103360003C4C810712D5400703D5206840F4E0505B
:1033700020602878000703D5206840F46040206072
:10338000A968206820F0F000084320602878C00772
:103390002AD0304968680839012810D00968022805
:1033A00010D0890700292EDA216821F0030101439A
:1033B0002160FFF74DFC804641F288390DE0096835
:1033C0008903EFE78901EDE7FFF742FCA0EB080175
:1033D000494502D90320BDE8F0876868216801F0FB
:1033E0000C01B1EB800FEFD1306800F00F00B84254
:1033F0000BD9306820F00F0038433060306800F09F
:103400000F00B84201D00120E5E72878400705D534
:10341000E968206820F4E05008432060287800071D
:1034200006D52869216821F4604141EAC000206086
:1034300000F058F82168084AC1F30311515CC840F4
:103440000649086006480068FFF71CFC0020C2E738
:10345000003C02400838024002C000080C00002076
:10346000040000200D4A0F2330B503604FF4E054F0
:103470000B4B156805F003054560156805F0F00570
:103480008560156805F4E055C560126804EAD2024B
:103490000261186800F00F00086030BD0838024073
:1034A000003C02400449054809680068044AC1F329
:1034B0008221515CC8407047083802400C0000204F
:1034C00012C000080449054809680068044AC1F3AD
:1034D0004231515CC8407047083802400C0000205F
:1034E00012C00008154910B51548096811F00C0202
:1034F00013D04110042A0FD0082A0ED10F4C241FDC
:103500002268236802F03F025B0207D52068C0F3FF
:103510008810A0FB010106E0084610BD2168C1F338
:103520008811A1FB00010023FCF744FF2168C1F3CF
:103530000141491C4900B0FBF1F010BD08380240C0
:103540000024F4002DE9F84F04004FF000076ED07E
:103550002078DFF868A3AAF10408C007A8F10405E1
:103560004CD0DAF800105046C1F38101012908D08F
:103570000068C0F3810002280AD1D8F80000400298
:1035800006D52868800339D560680028DFD035E08B
:103590006068B0F5803F0BD010B1B0F5A02F11D00E
:1035A000286820F480302860286820F4802002E019
:1035B000286840F480302860606890B1FFF748FBCD
:1035C00006460AE0286840F480202860F0E700BF43
:1035D000FFF73EFB801B642872D828688003F7D56C
:1035E0000CE0FFF735FB064605E000BFFFF730FBB8
:1035F000801B6428F0D828688003F7D420788007DF
:1036000042D5DAF80010504611F00C0F08D00068CF
:10361000C0F3810002280BD1D8F80000400207D483
:103620002868800718D5E068012800D114E041E13E
:10363000E0680028286817D040F001002860FFF7F4
:1036400007FB064605E000BFFFF702FB801B0228D0
:10365000C2D828688007F7D52069296821F0F801C9
:1036600041EAC00028600FE020F001002860FFF769
:10367000EFFA064605E000BFFFF7EAFA801B0228D2
:103680001ED828688007F7D42078000729D58B48F2
:1036900061696C3000298146016812D041F0010156
:1036A0000160FFF7D5FA064605E000BFFFF7D0FA44
:1036B000801B022804D8D9F800008007F6D510E056
:1036C00089E021F001010160FFF7C2FA064604E03B
:1036D000FFF7BEFA801B02287DD8D9F800008007CA
:1036E000F6D4207840076BD5DFF8D09109F138097E
:1036F000D9F80000C0000BD4D9F8001041F0805177
:10370000C9F80010D9F80000012700F0805000909F
:103710006B480168C90512D40168834641F4807181
:103720000160FFF795FA064605E000BFFFF790FA43
:10373000801B64284FD8DBF80000C005F6D55F4E2B
:10374000A068683601280AD008B1052811D0306871
:1037500020F001003060306820F0040002E03068A2
:1037600040F001003060A068A0B1FFF771FA834615
:103770000CE0306840F004003060F0E7FFF768FAD2
:10378000A0EB0B0141F28830814266D83068800797
:10379000F4D50EE0FFF75CFA834607E0FFF758FA2E
:1037A000A0EB0B0141F28830814256D83068800787
:1037B000F4D42FB1D9F8001021F08051C9F80010CD
:1037C000A069C8B3DAF80010C1F3810102294BD017
:1037D0000228286800E040E020F08070286003D0D4
:1037E000FFF736FA04463BE0FFF732FA064604E0FC
:1037F000FFF72EFA801B02282FD828688001F7D403
:10380000D4E90962D4E907012E4B570894F82C201B
:10381000084303EB074343EA8611084340EA02608A
:1038200040F00050C8F80000286840F08070286020
:10383000FFF70EFA044606E03EE000BFFFF708FA85
:10384000001B022809D828688001F7D534E000BFA2
:10385000FFF7FEF9001B022802D90320BDE8F88F0C
:1038600028688001F4D427E00128D8F8000021D08E
:10387000E16900F480028A421CD1216A00F03F0213
:103880008A4217D1626A47F6C0710140B1EB821FCC
:1038900010D1A16A4FF0FF3200F4403302EB510126
:1038A000B3EB014F06D194F82C1000F07060B0EB30
:1038B000016F01D00120D1E70020CFE70838024096
:1038C000007000400000FFFF704770477047000025
:1038D0002DE9F04390F83C20012A42D0012280F8E3
:1038E0003C2051F80C4BDFF880804FF0000991E844
:1038F000680051E9022723F44073B1F80CC03B4340
:10390000CF6923F480631343026823F400632343E5
:1039100023F4805343EA050323F4005343EA0603E8
:1039200023F4804343EA07030C3923F47023424510
:1039300043EA0C4302D00D4CA2420CD18D8C23F4EF
:103940007006D1E9073446EA055121F08071194328
:1039500021F000732343536480F83C900020BDE8BD
:10396000F0830220FBE7000000000140000401405A
:10397000F0B590F83C20012A3BD01F4E012480F87E
:103980003C40022280F83D2002681C4D5368B24240
:10399000D2F808C001D0AA4203D14F6823F47003C3
:1039A0003B430F6823F070031F4357600268B24225
:1039B00013D0B2F1804F10D0114B9A420DD0114B61
:1039C0009A420AD0104B9A4207D0AA4205D00F4B18
:1039D0009A4202D00E4B9A4204D189682CF080039F
:1039E00019439160002180F83D4080F83C10084662
:1039F000F0BD0220F0BD00000000014000040140C5
:103A00000004004000080040000C0040004001405D
:103A10000018004010B5040003D094F83D0010B128
:103A200007E0012010BD002084F83C00204600F093
:103A300023F8022084F83D002068211D03F06AFC71
:103A4000012084F8480084F83E0084F83F0084F8A0
:103A5000400084F8410084F8420084F8430084F870
:103A6000440084F8450084F8460084F8470084F850
:103A70003D00002010BD000008B5016833488142B8
:103A80000FD13348016841F0040101600068002251
:103A9000052100F0040000901E20FFF765F91E20AC
:103AA0004EE02B482B4A001D914226D1016841F07F
:103AB0000201016000680022052100F00200009070
:103AC0002B20FFF751F92B20FFF740F900220521A9
:103AD0002C20FFF749F92C20FFF738F900220F219D
:103AE0002D20FFF741F92D20FFF730F900220521A5
:103AF0002E20FFF739F92E2022E0174A91420ED1ED
:103B0000016841F48031016000680022052100F461
:103B1000803000901820FFF727F9182010E00F4A96
:103B2000914211D1016841F48021016000680022B6
:103B3000052100F4802000901A20FFF715F91A20C3
:103B4000BDE80840FFF702B908BD000000080040CA
:103B5000403802400004014000400140004801405C
:103B600090F83D10012901D001207047144B02222A
:103B7000016880F83D20994214D0B1F1804F11D0F6
:103B8000104881420ED0104881420BD00F4881422C
:103B900008D00F48814205D00E48814202D00E481D
:103BA000814207D188680D4A1040062806D0B0F53A
:103BB000803F03D0086840F0010008600020704793
:103BC000000001400004004000080040000C0040DC
:103BD00000040140004001400018004007000100BF
:103BE00090F83D10012901D001207047174A0221A9
:103BF00080F83D100168CB6843F00103CB6000689A
:103C0000904214D0B0F1804F11D0114988420ED0AB
:103C1000104988420BD01049884208D00F49884289
:103C200005D00F49884202D00E49884207D18168E9
:103C30000D4A1140062906D0B1F5803F03D0016836
:103C400041F00101016000207047000000000140C8
:103C50000004004000080040000C00400004014047
:103C600000400140001800400700010070B5044604
:103C700090F83C000025012817D0334B012684F82A
:103C80003C60022084F83D0022689068184020F4CF
:103C90007F4090600868502838D00DDC20284FD035
:103CA00005DC90B3102811D14AE0022070BD302805
:103CB00046D040280AD13BE060282FD070280DD094
:103CC000B0F5805F03D0B0F5005F12D0012584F815
:103CD0003D60002084F83C00284670BD4A6820689A
:103CE000D1E9021303F089FB2068816841F0770174
:103CF00009E04A682068D1E9021303F07EFB2068DE
:103D0000816841F480418160E1E719E0CA6849684F
:103D1000206803F0B9FC2068502106E0CA684968B1
:103D2000206803F0C2FC2068602103F06FFBCEE73F
:103D3000CA684968206803F0A7FC20684021F4E7BE
:103D4000226801461046F0E788FFFEFF2DE9F041AA
:103D500004000D4603D094F83D0018B108E001209E
:103D6000BDE8F081002084F83C00204600F04CF8CB
:103D7000244A022084F83D00206881681140816057
:103D80002068211D03F0C6FA226840F20336AF69AD
:103D900040F60C4C2B684FF2F00EA86891680B436C
:103DA0009169B14341EA07210843D5E9031720EAA5
:103DB0000C00D5E9076C20EA0E00D2F820E03F01A4
:103DC00040EA062668686D69314347EA0C3793601C
:103DD00023680F4301219F612EF0AA0242EA0513D6
:103DE00022681843106284F8481084F83E1084F862
:103DF0003F1084F8441084F8451084F83D100020EA
:103E0000AEE70000F8BFFEFF70B586B0054614218E
:103E10006846FCF7B5FB2B68002462480225604920
:103E2000012683423BD15E481430026842F0010211
:103E30000260006800F001000590086840F0100082
:103E400008600868694600F0100005904FF4206093
:103E50000090CDE901545448CDE90346FEF7C2FD78
:103E6000002205211820FEF77FFF1820FEF76EFFC5
:103E7000002205211920FEF777FF1920FEF766FFC3
:103E8000002205211A20FEF76FFF1A20FEF75EFFC1
:103E9000002205211B20FEF767FF1B2058E0434A44
:103EA000B3F1804F424822D0424EB34254D11368FE
:103EB00043F002031360126802F0020205920A68DE
:103EC00042F001020A60096801F001010591C02178
:103ED0000091CDE90154CDE903456946FEF782FD25
:103EE000002205211D20FEF73FFF1D2030E0136852
:103EF00043F001031360126802F0010205920A68A0
:103F000042F001020A600A6802F0010205920A68A2
:103F100042F002020A60096801F0020105912021C5
:103F20000091CDE90154CDE903466946FEF75AFDFB
:103F300008200090CDE901541F486946CDE90346A9
:103F4000FEF750FD002205211C20FEF70DFF1C206E
:103F5000FEF7FCFE06B070BD184EB342FAD11368EE
:103F600043F008031360126802F0080205920A6821
:103F700042F001020A60096801F001010591032184
:103F80000091CDE90154CDE903456946FEF72AFDCC
:103F9000002205213220FEF7E7FE3220D8E700009C
:103FA000303802400000014000100240403802401A
:103FB000000002400004004000040240000C0040E9
:103FC00070B504464FF0020094F83E2094F83F503C
:103FD00094F8446094F8453021B104290DD0012AA9
:103FE0001AD113E0012A17D1012E15D184F83E0011
:103FF00084F844000021206820E0012D0CD1012B21
:104000000AD184F83F0084F8450014E0012D03D163
:10401000012E01D1012B01D0012070BD84F83E009A
:1040200084F83F0084F8440084F8450001222068A9
:10403000002103F0D5F920680122042103F0D0F912
:104040002068016841F001010160002070BD7047E7
:1040500070B50446006800250169C943890715D475
:10406000C168C943890711D4EA1E02610121217781
:10407000206880698007204602D0FFF7E8FF04E04F
:1040800000F004F9204600F0C6F9257720680169A0
:10409000C943490717D4C168C943490713D402214A
:1040A0006FF00402026121772068806910F4407F7C
:1040B000204602D0FFF7CBFF04E000F0E7F82046EF
:1040C00000F0A9F9257720680169C943090716D4CA
:1040D000C168C943090712D404216FF008020261C4
:1040E00021772068C0698007204602D0FFF7AFFF24
:1040F00004E000F0CBF8204600F08DF92577206829
:104100000169C943C90617D4C168C943C90613D494
:1041100008216FF01002026121772068C06910F455
:10412000407F204602D0FFF792FF04E000F0AEF897
:10413000204600F070F9257720680169C943C90756
:1041400008D1C168C943C90704D1891E016120464D
:1041500000F0DEF920680169C943090609D4C16885
:10416000C943090605D46FF0800101612046FFF7BD
:10417000ACFB20680169C943C90509D4C168C943BA
:10418000090605D46FF4807101612046FFF79CFB9E
:1041900020680169C943490609D4C168C943490671
:1041A00005D46FF040010161204600F0BBF92068A2
:1041B0000169C94389060BD4C168C943890607D47C
:1041C0006FF0200101612046BDE87040FFF77EBB23
:1041D00070BD000030B587B0044614216846FCF776
:1041E000CFF9234A00202368224993424FF002026C
:1041F00011D10B6843F008030B60096801F0080156
:1042000005914FF470410091CDE90120CDE9030201
:104210001948694613E0194D0324AB4213D10B68CA
:1042200043F004030B60096801F0040105912102C9
:104230000091CDE90120CDE9030411486946FEF75C
:10424000D1FB07B030BD0F4DAB42FAD10B6843F044
:1042500010030B60096801F01001059160210091C5
:10426000CDE90120CDE9030407486946E7E70000EE
:104270000008004030380240000C024000040140B9
:10428000000802400040014000100240704770B535
:10429000044690F83C0000260D4601280BD0012072
:1042A00084F83C000C2A4AD007DC82B1042A20D0D2
:1042B000082A06D131E0022070BD102A53D0142AFA
:1042C00063D00126002084F83C00304670BD206891
:1042D00003F0A4F82068816941F008018161206839
:1042E000816921F00401816120682A698169114393
:1042F00011E0206803F0CCF82068816941F4006186
:1043000081612068816921F4806181612068296967
:10431000826942EA01218161D4E7206803F0F4F860
:104320002068C16941F00801C1612068C16921F0BC
:104330000401C16120682A69C169114311E0206844
:1043400003F01EF92068C16941F40061C161206871
:10435000C16921F48061C16120682969C26942EAAA
:104360000121C161AEE7206803F036F92068416D94
:1043700041F0080141652068416D21F0040141656B
:1043800020682A69416D114311E0206803F050F95B
:104390002068416D41F4006141652068416D21F460
:1043A0008061416520682969426D42EA01214165C9
:1043B00088E710B5040003D094F83D0010B107E081
:1043C000012010BD002084F83C00204600F022F8B7
:1043D000022084F83D002068211D02F09BFF01208F
:1043E00084F8480084F83E0084F83F0084F84000D8
:1043F00084F8410084F8420084F8430084F84400C3
:1044000084F8450084F8460084F8470084F83D00AD
:10441000002010BD7047704710B504464FF00202EF
:1044200069B1042912D0082917D00C291CD01029F1
:1044300021D094F84300012824D0012010BD94F825
:104440003E000128F9D184F83E201DE094F83F0099
:104450000128F2D184F83F2016E094F840000128AA
:10446000EBD184F840200FE094F841000128E4D11A
:1044700084F8412008E094F842000128DDD184F856
:10448000422001E084F843200122206802F0A8FFC6
:1044900017492068174A884201D0904203D1436CE3
:1044A00043F4004343642068884213D0B0F1804F46
:1044B00010D0114988420DD0104988420AD01049C5
:1044C000884207D0904205D00E49884202D00E495A
:1044D000884207D181680D4A1140062906D0B1F5FE
:1044E000803F03D0016841F001010160002010BD50
:1044F00000000140000401400004004000080040AA
:10450000000C00400040014000180040070001007E
:1045100000680349884201D1FEF7A0BB7047000044
:10452000002000407047704770B501680446C06FB6
:104530001025D4F880608968090618D5212816D17D
:104540002068083050E8001F21F0800140E8001288
:10455000002AF5D1206F38B1FEF766F820B1206F40
:10456000FEF7BDF8202821D0204603F094FB2068F8
:104570008068400618D5222E16D12068083050E8F1
:10458000001F21F0400140E80012002AF5D1606FC1
:1045900038B1FEF749F820B1606FFEF7A0F8202887
:1045A00004D0204603F051FB002070BDC4F88450B5
:1045B000032070BD70470146C06FD1F880100843DA
:1045C000704700002DE9F04102680025044640F6DE
:1045D0000F070226D06911689368384205D1830617
:1045E0007ED58B067CD5A16E1CE1DFF868C203F096
:1045F000010701EA0C0C57EA0C0C71D05FEAC07C91
:104600000CD05FEAC15C09D54FF0010CC2F820C0A4
:10461000D4F8842042F00102C4F88420820709D52E
:10462000DA0707D022681662D4F8842042F0040228
:10463000C4F8842042070AD5DA0708D02368042288
:104640001A62D4F8842042F00202C4F884200207DF
:104650000CD501F020023A4308D0236808221A62E0
:10466000D4F8842042F00802C4F8842002050BD557
:104670004A0109D523684FF400621A62D4F88420F5
:1046800042F02002C4F88420D4F88420002A36D0D6
:10469000800605D5880603D5A16E09B12046884756
:1046A0002168D4F884008968490602D410F0280FE4
:1046B00027D0204603F0C9FA2068806840061BD541
:1046C0002068083050E8001F21F0400140E8001247
:1046D000002AF5D1606F78B15F490165606F00E035
:1046E00015E0FDF7EAFF002809D0606F016D00E0DA
:1046F0002046BDE8F04108472046FFF75BFFBDE8D4
:10470000F0812046FFF756FFC4F88450F7E7276E84
:104710002023012F7DD1C7067FD5CF067DD5102060
:10472000106220688068400643D5616F0868406861
:104730000004000CE3D0B4F858208242DFD9A4F87A
:104740005A00C869B0F5807F2BD0216851E8000F6E
:1047500020F4807041E80002002AF6D12068083079
:1047600050E8001F21F0010140E80012002AF5D1B5
:104770002068083050E8001F21F0400140E8001296
:10478000002AF5D1C4F880302566216851E8000F71
:1047900020F0100041E80002002AF6D1606FFDF71A
:1047A00043FF6666B4F85800B4F85A10401A81B254
:1047B0002DE0B4F85800B4F85A10B4F85A20401A52
:1047C00081B2002A9BD0002999D0226852E8000FBC
:1047D00020F4907042E80007002FF6D1206800F125
:1047E000080050E8002F22F0010240E80027002FC7
:1047F000F4D1C4F880302566A566226852E8000F1F
:1048000020F0100042E80003002BF6D16666204637
:1048100000E002E0FFF787FE71E7020606D50A0610
:1048200004D5E16E00297FF463AF68E74006F3D555
:104830004806F1D52046026852E8001F21F04001E9
:1048400042E80014002CF6D1C367C56600F0D6FA22
:1048500055E7000020010004497B000810B5040062
:1048600002D0E06F10B107E0012010BD002084F8F5
:104870007800204600F026F82420E06720680168D0
:1048800021F001010160204603F0B6FA0128ECD0C6
:10489000606A10B1204603F0D1F82068416821F425
:1048A000904141602068816821F02A018160206880
:1048B000016841F0010101602046BDE8104003F0AD
:1048C00021B900002DE9F04FA7B08246142121A89C
:1048D000FBF756FE84216846FBF752FEDA4C0227AE
:1048E000DA490326DAF80000103CD74D4FF00809EA
:1048F00088424FF000082AD14115CDF85080684613
:104900000091FEF799FA08B1FDF706FD286840F41A
:1049100000202860286800F400202690206840F0DD
:1049200004002060206821A900F0040026904FF4C4
:10493000406081E88101C648CDE92469FEF752F85C
:10494000002205213420FEF70FFA342041E0C1494E
:104950004FF4805B884241D10015CDF8548000901F
:104960006846FEF769FA08B1FDF7D6FC286840F4FE
:1049700080102860286800F480102690206840F09D
:1049800004002060206800F004002690206840F0B9
:1049900008002060206821A944464D4600F0080028
:1049A000CDE92590CDE92386A948CDE921B7FEF7C9
:1049B00019F804202595CDE92107A74821A9CDE9BB
:1049C0002346FEF70FF8002205213520FEF7CCF92B
:1049D0003520FEF7BBF927B0BDE8F08F9F4988422C
:1049E0002BD16846CDF800B0CDF85C80FEF724FAF4
:1049F00008B1FDF791FC286840F0804028602868E5
:104A000000F080402690206840F010002060206870
:104A100021AB24964FF4C07200F0100021A9CDE91B
:104A2000259083E884018E48FDF7DCFF00225220A8
:104A30001146FEF799F95220CBE78A49884228D1DE
:104A400041146846CDF860800091FEF7F5F908B191
:104A5000FDF762FC286840F000402860286800F0FC
:104A600000402690206840F010002060206821A9B6
:104A700000F0100081E8C0012496CDE92590784827
:104A8000FDF7B0FF002205215320FEF76DF95320FA
:104A90009FE775494FF0070B88422DD14020CDF894
:104AA000448000906846FEF7C7F908B1FDF734FC72
:104AB0006548001D016841F010010160006800F0C8
:104AC00010002690206840F001002060206821AA94
:104AD0004FF4C061249600F0010082E88201CDE924
:104AE00025B0624821A9FDF77DFF00220521252080
:104AF000FEF73AF925206CE75D4988422AD18021EA
:104B00006846CDF848800091FEF796F908B1FDF7A8
:104B100003FC286840F400302860286800F4003066
:104B20002690206840F001002060206821AB249688
:104B30000C2200F0010021A9CDE925B083E8840111
:104B40004A48FDF74FFF002205212620FEF70CF909
:104B500026203EE74749884244D181156846CDF872
:104B60004C800091FEF768F908B1FDF7D5FB286885
:104B700040F480202860286800F480202690206877
:104B800040F00200206020684FF44061CDE9211719
:104B900000F00200454621A9CDE925B03648CDE90F
:104BA0002386FDF71FFF354C4FF00062344908158E
:104BB00084E82600C4E9035065612046A561E561EB
:104BC00025626562FDF75EFE08B1FDF7A5FBCAF838
:104BD000744000220521C4F838A02720FEF7C4F84D
:104BE0002720F6E6274988427FF4F5AEC014CDF8B9
:104BF000588000906846FEF71FF908B1FDF78CFB5E
:104C00001148001D016841F020010160006800F0BA
:104C100020002690206840F004002060206821AA2F
:104C2000C021249600F0040082E88201CDE925909D
:104C3000074821A9FDF7D6FE002205214720FEF7EF
:104C400093F84720C5E6000040380240004C004081
:104C50000008024000500040000C02400078004074
:104C600000100240007C00400010014000000240A3
:104C70000044004000480040000402400C1800209E
:104C8000286002400014014030B4D0F88030202B5E
:104C900002D0022030BC704791B18AB10023036674
:104CA00003685B681B0208D5046854E8003F43F0C2
:104CB000806344E80035002DF6D130BC03F0B4B970
:104CC0000120E7E730B4D0F88030202B02D002205A
:104CD00030BC704791B18AB10023036603685B68FA
:104CE0001B0208D5046854E8003F43F0806344E8A1
:104CF0000035002DF6D130BC03F0E6B90120E7E71E
:104D000030B50068114988420CD1114841880A0425
:104D100008D402464FF000034C04127806D50A2A44
:104D200001D0438030BD41F400410DE00D2A09D08F
:104D3000084DC1F30D04491C89B2C7292A55418089
:104D4000EFD830BD41F48041418030BD00100140BA
:104D5000CA000020DC0F012070472DE9F84304460B
:104D6000C06F1F4616460D46202802D00220BDE81F
:104D7000F8838DB186B10020C4F884002121E16759
:104D8000FDF766FF8046A068A4F85060A4F8526062
:104D9000B0F5805F02D003E00120E8E7206910B1A0
:104DA0002E46002510E000260EE08021204603F06C
:104DB000E7F9B8B9C6B116F8010B21688862B4F8F2
:104DC0005200401EA4F85200B4F8520043464FF07F
:104DD000000200970028E8D14FF04001204603F080
:104DE000CFF938B10320C2E735F8020B2168C0F3D0
:104DF0000800E3E72020E0670020B8E77047FEE7FF
:104E000010B586B098B14FF4807200BF0B484FF0D8
:104E100000044FF0010369B1012906D1CDE9002456
:104E2000CDE902346946FDF7DDFD06B010BD4FF453
:104E30000052EBE7CDE90023F2E70000001002404A
:104E40002DE9F0411C460E4601210746069DFFF75D
:104E5000D7FF384600F046F940B1761C3846F1B22B
:104E600000F0DAF8384600F0DFF978B9384600F09B
:104E70009DF90020BDE8F08100F018F804F8010B5E
:104E80000021384600F074F86D1EEDB23846012D51
:104E9000F2D100F00BF801212070384600F068F8DC
:104EA000384600F083F90120E4E700002DE9F041E5
:104EB00001210546FFF7A4FF002D2C4D4FF0010204
:104EC00029D0160228463146FDF7BDFE052003F025
:104ED000A3FD2F46002560060122040E38468021DE
:104EE000FDF7B1FE31463846FDF7A0FE08B144F0AB
:104EF0000104052003F090FD002238468021FDF7D3
:104F0000A2FE052003F088FD6D1CEDB2082DE2D352
:104F10002046BDE8F0814FF4005628463146FDF7A3
:104F200092FE052003F078FD4FF48057B04600262E
:104F3000394660060122040E2846FDF784FE4146EC
:104F40002846FDF773FE08B144F00104052003F084
:104F500063FD002239462846FDF775FE052003F063
:104F60005BFD761CF6B2082EE2D3D1E700100240BA
:104F70002DE9F041274C05000E4624D0012D47D1E4
:104F8000002220468021FDF75EFE00212846FFF723
:104F900037FF012E4FF4807138D000222046FDF7F4
:104FA00052FE052003F038FD012220468021FDF746
:104FB0004AFE052003F030FD002280212046BDE896
:104FC000F041FDF740BE4FF480572046002239469D
:104FD000FDF739FE00212846FFF712FF012E4FF49E
:104FE000005111D000222046FDF72DFE052003F0D0
:104FF00013FD012239462046FDF725FE052003F06A
:105000000BFD00223946D9E70122ECE70122C5E772
:10501000BDE8F081001002402DE9F0410C46054644
:105020000021FFF7EDFE002D2D4D4FF000020BD0BB
:1050300080212846FDF707FE4FF480772E46002595
:1050400020062ED501222DE04FF480572846394600
:10505000FDF7F9FD00264FF40058200601D5012286
:1050600000E0002241462846FDF7EDFD052003F053
:10507000D3FC012239462846FDF7E5FD052003F063
:10508000CBFC002239462846FDF7DDFD052003F064
:10509000C3FC6006761C040EF6B2082EDDD3BDE814
:1050A000F081002239463046FDF7CDFD052003F0A2
:1050B000B3FC012230468021FDF7C5FD052003F039
:1050C000ABFC002230468021FDF7BDFD052003F03A
:1050D000A3FC60066D1C040EEDB2082DB0D3DEE714
:1050E0000010024070B500210546FFF789FE2E4CE6
:1050F00015B1012D28D055E001222046550329463F
:10510000FDF7A1FD052003F087FC012220461603D0
:105110003146FDF798FD052003F07EFC2946204628
:10512000FDF784FD002834D0002229462046FDF7F3
:105130008AFD052003F070FC29462046FDF776FD28
:1051400030BB0022314627E00122204615022946C5
:10515000FDF779FD052003F05FFC01222046802148
:10516000FDF771FD052003F057FC29462046FDF7A9
:105170005DFD00280DD0002229462046FDF763FD85
:10518000052003F049FC29462046FDF74FFD08B1F4
:10519000002070BD002280212046FDF754FD05202F
:1051A00003F03AFC012070BD0010024070B51D4CA8
:1051B00008B3012835D10021FFF722FEA5152046AE
:1051C00000222946FDF73FFD002220468021FDF701
:1051D0003AFD052003F020FC012280212046FDF746
:1051E00032FD052003F018FC29462046BDE870403A
:1051F0000122FDF728BD0021FFF702FE4FF4005504
:10520000204600222946FDF71EFD6E102046002292
:105210003146FDF718FD052003F0FEFB0122314663
:10522000DCE770BD001002402DE9F0410024054686
:105230000121FFF7E5FD002D2F4D4FF4FA764FF0D9
:10524000010210D0170228463946FDF7FCFC052064
:1052500003F0E2FB012228468021FDF7F4FC052043
:1052600003F0DAFB2FE04FF4005728463946FDF7EC
:10527000EAFC052003F0D0FB4FF4805828460122B9
:105280004146FDF7E0FC052003F0C6FB03E0641C8B
:10529000A4B2B44205D039462846FDF7C7FC002821
:1052A000F5D139462846FDF7C1FC4FF000024146D2
:1052B000C8B12846FDF7C7FC0020BDE8F081641C9A
:1052C000A4B2B44205D039462846FDF7AFFC002809
:1052D000F5D139462846FDF7A9FC00284FF0000219
:1052E0004FF08001E5D12846FDF7ADFC052003F025
:1052F00093FB0120E1E700000010024070B5114D62
:105300004FF48054002221462846FDF79CFC0120E2
:1053100001F06EF8002228466110FDF794FC02208F
:1053200003F07AFB012221462846FDF78CFC02207F
:1053300003F072FB21462846BDE870400022FDF7CD
:1053400082BC000000000240114810B586B0016820
:1053500041F008010160006802220E4C4FF4C05178
:1053600000F0080005900120CDE90202CDE900100F
:1053700069462046FDF736FB01222046D102FDF7A3
:1053800062FC012220461103FDF75DFC06B010BD52
:10539000303802400000024070B5114D4FF4805487
:1053A000002221462846FDF74EFC012001F020F89E
:1053B00001222846D102FDF746FC022003F02CFB17
:1053C000012221462846FDF73EFC022003F024FB83
:1053D00021462846BDE870400022FDF734BC00009D
:1053E000000002402DE9F04700248046204600F0EE
:1053F000FFFF174F00254FF480564FF400693146E8
:1054000000223846FDF71FFC022003F005FB0122B5
:1054100031463846FDF717FC60064946040E38460B
:10542000FDF704FC08B1641CE4B2012003F0F4FAB7
:105430006D1CEDB2082DE2D3B8F1000F04D0FFF7D8
:105440005DFF2046BDE8F087FFF7A6FFF9E7000003
:10545000000002402DE9F0410546012000F0C8FFA0
:10546000174F4FF48056002231463846FDF7EBFBCC
:1054700000244FF40068280601D5012200E0002234
:1054800041463846FDF7DFFB6806050E022003F0B3
:10549000C3FA012231463846FDF7D5FB022003F05E
:1054A000BBFA002231463846FDF7CDFB022003F05F
:1054B000B3FA641CE4B2082CDDD3BDE8F08100002F
:1054C0000000024070B5012000F092FF01220F4D54
:1054D000D40228462146FDF7B6FB012228461603D2
:1054E0003146FDF7B0FB042003F096FA0022214676
:1054F0002846FDF7A8FB042003F08EFA3146284623
:10550000BDE870400022FDF79EBB00000000024095
:1055100070B5012000F06CFF0F4D4FF48054002255
:1055200021462846FDF78FFB6610284600223146AB
:10553000FDF789FB042003F06FFA0122214628467B
:10554000FDF781FB012231462846FDF77CFBBDE8D3
:105550007040042003F060BA000002402DE9F041E1
:105560000024204600F044FF0122144DD6022846B4
:105570003146FDF768FB012003F04EFA0122284670
:1055800017033946FDF75FFB012003F045FA08E0F9
:10559000641CE4B2FA2C04D9FFF7BAFF0120BDE87D
:1055A000F08131462846FDF741FB0028F0D100226A
:1055B00039462846FDF747FB0020F0E7000002408F
:1055C00006490122064810B5FFF77CFB034901227A
:1055D000BDE810400348491CFFF774BBA50000203C
:1055E000FC160020DC140020FEB59FED2F0A0446B7
:1055F000154600200E468DED010A012301460246A4
:105600008DF8080014E0278803FA00FC17EA0C0F55
:105610000CD0B4F800E0471C02F1010203FA07FCC9
:105620001EEA0C0FD2B201D1491CC9B2401CC0B253
:10563000B042E8D361722272104603F0DBFE28B15B
:105640000120FFEE000ABFEE000A29E002A8324660
:1056500001AB29460090204605F0A2FDB0EE401AAD
:10566000B5EEC01AF1EE10FAEADBB0EE410A04F032
:10567000ABFF00289DF80800DDED010A00EE100ADE
:10568000F8EE401A80EEA10A8DED010A84ED010AC0
:10569000D4ED010AB0EE410A01D0002000E0022062
:1056A00002F034FF0020FEBD000000002DE9F041B3
:1056B000144C0025064612480C2720602046C4E9F9
:1056C0000165E5602561C4E90575FFF7C7F8206845
:1056D000883C0D4A016841F02001016022602046AB
:1056E000C4E90165E5602561C4E90575FFF7B6F811
:1056F0002068016841F020010160BDE8F0810000F0
:10570000004C0040E40C012000140140114808B591
:10571000016841F40011016000680022052100F4D5
:10572000001000900C20FDF71FFB0C20FDF70EFB76
:1057300000220E201146FDF717FB0E20FDF706FB99
:10574000002210201146FDF70FFBBDE80840102095
:10575000FDF7FCBA30380240704700002DE9F047F1
:1057600086B014216846FAF70BFF5C48016841F0E7
:1057700010010160016801F010010591016841F01C
:1057800004010160016801F004010591016841F024
:1057900080010160016801F080010591016841F01C
:1057A00001010160016801F001010591016841F00A
:1057B00002010160016801F002010591016841F0F8
:1057C0000801016000684FF40057DFF814A10022BF
:1057D00000F00800394605905046FDF734FA0022E3
:1057E00050460321FDF72FFADFF8F8904FF4C0562A
:1057F000002231464846FDF726FA00246946012575
:105800000220CDE90204CDE900755046FDF7EAF823
:1058100003206946CDE90005CDE902545046FDF765
:10582000E1F830206946CDE9000450460294FDF7C6
:10583000D9F82D4F42F2F730CDE9000469463846D9
:105840000294FDF7CFF8DFF8A48040F6BB70CDE9F5
:105850000004694640460294FDF7C4F80096694684
:10586000CDE901453846FDF7BDF828026946CDE986
:10587000000448460294FDF7B5F800966946CDE964
:10588000015448460394FDF7ADF840200090CDE95F
:105890000154694640460394FDF7A4F8144E44F2BF
:1058A0001840CDE90004694630460294FDF79AF8A5
:1058B000E8030090CDE90154694630460394FDF7B2
:1058C00091F84FF440406946CDE9000450460294F7
:1058D000FDF788F806B0BDE8F087000030380240D8
:1058E000000802400000024000040240000C024098
:1058F0000010024030B58DB024216846FAF740FE12
:1059000017480024154D4FF6FF72099480230A941E
:1059100001210B94056003254460C0E90242046143
:10592000C0E905430095CDE9014103940494CDE914
:105930000541694607940894FEF708FA08B1FCF798
:10594000EBFC074809A909940A940B94FEF710F898
:10595000002801D0FCF7E0FC0DB030BD0000014094
:105960007C12002070B58CB024216846FAF708FE3E
:105970001548002401214FF6FF72099480238E07F9
:105980000A940B940325C0E90064C0E90242046153
:1059900083610095CDE9014103940494CDE905416B
:1059A000694607940894FEF7D1F908B1FCF7B4FCF6
:1059B000054809A909940B94FDF7DAFF002801D0E6
:1059C000FCF7AAFC0CB070BDC812002070B58CB0FA
:1059D00024216846FAF7D4FD164800244FF6FF72DA
:1059E000134E099401210A9480230B940325C0E9E6
:1059F0000064C0E90242046183610095CDE9014180
:105A000003940494CDE90541694607940894FEF790
:105A10009DF908B1FCF780FC064809A909940B948C
:105A2000FDF7A6FF002801D0FCF776FC0CB070BD96
:105A3000000400401413002010B58EB000241C2177
:105A4000009407A801940294039404940594069486
:105A5000FAF796FD2A4842F62F21284B8022C0E90A
:105A60000034C0E9024104618261FDF7D3FF08B14F
:105A7000FCF752FC4FF48050009021486946FEF735
:105A8000F5F808B1FCF748FC1D48FEF792FC08B198
:105A9000FCF742FC1A4804A904940694FDF768FF39
:105AA00008B1FCF739FC6020CDE907041448002256
:105AB00007A909940B94FEF7EAFB08B1FCF72CFC4C
:105AC0000F48042207A9FEF7E2FB08B1FCF724FC0B
:105AD0000B48082207A9FEF7DAFB08B1FCF71CFC0B
