:020000040800F2
:10000000803B012095030008216C0008DB5C0008A0
:10001000E16B0008AD16000889960008000000009A
:10002000000000000000000000000000D1020008F5
:1000300061310008000000002D030008A1820008C3
:10004000AF030008AF030008AF030008AF030008C8
:10005000AF030008AF030008AF030008AF030008B8
:10006000AF030008AF030008AF030008AF030008A8
:1000700099300008AF030008A5300008AF0300085E
:10008000B1300008AF030008AF030008AF03000859
:10009000AF030008AF030008AF030008AF03000878
:1000A00081830008C5830008A98300089D83000898
:1000B000D1830008DD830008E9830008AF0300084E
:1000C000AF030008AF030008AF030008AF03000848
:1000D000AF0300089D930008E19300088D94000889
:1000E000AF030008AF030008AF0300089D840008B9
:1000F000D1840008B5840008A9840008AF03000873
:10010000AF030008AF030008F5830008AF03000841
:10011000698A00080D8B00080184000855840008D6
:10012000AF030008AF030008AF030008AF030008E7
:10013000AF030008AF030008AF030008AF030008D7
:10014000AF030008AF030008AF030008AF030008C7
:10015000AF030008AF030008AF030008E5950008EF
:10016000AF030008AF030008AF030008AF030008A7
:10017000AF030008AF030008AF030008AF03000897
:10018000AF030008AF030008AF030008818B00082D
:10019000AF030008AF030008AF030008AF03000877
:1001A000AF030008AF030008AF030008AF03000867
:1001B000AF030008AF030008AF030008AF03000857
:1001C000AF030008AF03000800F002F800F071F878
:1001D0000AA090E8000C82448344AAF10107DA45A2
:1001E00001D100F066F8AFF2090EBAE80F0013F083
:1001F000010F18BFFB1A43F001031847ECE10000A0
:100200000CE2000010F8013B0A4413F0030408BF9D
:1002100010F8014B1D1108BF10F8015B641E05D0DA
:1002200010F8016B641E01F8016BF9D1002D15D097
:1002300010F8014B03F00C030C2BA1EB04040ABFD4
:1002400010F8013BA4EB8314A4EB032405F1010394
:1002500014F8016B5B1E01F8016BF9D5914238BFB0
:1002600010F8013BD1D3704700230024002500265D
:10027000103A28BF78C1FBD8520728BF30C148BF09
:100280000B607047642900F07981752900F0768150
:10029000782900F0AF81632900F07D83732900F095
:1002A0008283002070471FB50DF03DFE1FBD10B5C5
:1002B00010BD00F0AFFB1146FFF7F5FF0AF0E8F9BB
:1002C00000F0CDFB03B4FFF7F2FF03BC09F05EFAC8
:1002D0002D4B19680868B0E8F04F80F30988BFF328
:1002E0006F8F4FF0000080F311887047000000000E
:1002F00008480068006880F308884FF0000080F329
:10030000148862B661B6BFF34F8FBFF36F8F00DF03
:1003100000BF00BF08ED00E0DFF80C00016841F409
:1003200070010160704700BF88ED00E0EFF30980C5
:10033000BFF36F8F144B1A681EF0100F08BF20ED2B
:10034000108A20E9F04F106009B44FF0500072B6E7
:1003500080F31188BFF34F8FBFF36F8F62B60CF03D
:1003600025FF4FF0000080F3118809BC1968086868
:10037000B0E8F04F1EF0100F08BFB0EC108A80F309
:100380000988BFF36F8F704710000020EFF30580DE
:10039000704700000948804709480047FEE7FEE72C
:1003A000FEE7FEE7FEE7FEE7FEE7FEE7FEE7FEE725
:1003B00004480549054A064B704700007183000850
:1003C000C901000880350120803B012080370120D1
:1003D0008037012053EA020C00F069802DE9F04BD0
:1003E0004FF00006002B1FBFB3FA83F503FA05F4A4
:1003F00024FA05F65E4012BF1643B2FA82F502FAFD
:1004000005F4C5F120051EBF22FA05FC44EA0C04E0
:10041000203556EA044C4FEA144418BF641C4FF0D0
:1004200000084FF00009904271EB030C39D300290A
:1004300019BFB1FA81F701FA07F6B0FA80F700FAAE
:1004400007F6C7F120071EBF20FA07FC46EA0C0694
:100450002037B6FBF4FCA7EB0507103F07F01F0B96
:10046000CBF120060CFA0BFB2CFA06F644BFB34680
:100470000026202FA4BF5E464FF0000B5BEA060C5F
:1004800008BF4FF0010B19EB0B09ABFB027C48EBEB
:100490000608C01B06FB02CC0BFB03CC71EB0C0166
:1004A000C1E70B46024641464846BDE8F08B13B50E
:1004B0004FF000004FF00001AFF30080BDE81C409A
:1004C000704700000FB4044910B503AA029800F069
:1004D0006FFA10BC5DF814FBE000002070B5044614
:1004E00085690068C10601D5302600E02026C007D6
:1004F00007D070BDD4E9012130469047206A401CE6
:1005000020626D1EF6D570BD70B504468569007811
:10051000C00707D170BDD4E9012120209047206A8F
:10052000401C20626D1EF6D570BD70B50C460546A8
:10053000012A05D02878800600D5EA69002302E068
:10054000012305E05B1C934202D2E05C0028F9D154
:10055000A869E618C01AA861286A184428622846C3
:10056000FFF7BCFF04E0D5E9012114F8010B904727
:10057000B442F8D32846FFF7C7FF70BD2DE9F0411C
:100580000646002410687529314616A510D0AFF331
:100590000080002802DA404213A507E031688A078C
:1005A00001D512A502E0490704D511A5012401E0F7
:1005B000AFF3008000210A2206F1240709E0B0FB16
:1005C000F2FCB0FBF2F302FB1C003030785418460A
:1005D000491C0028F3D123462A463046BDE8F041A5
:1005E00000F076B9000000002D0000002B00000094
:1005F0002000000070B504460D4621461068AFF398
:1006000000802188090502D50F4A7A4402E00E4A8B
:100610007A440E32002104F1240305E000F00F06B5
:100620000009965D5E54491C0028F7D1207800230C
:10063000000704D5702D02D009B1022311322046E3
:10064000BDE8704000F044B956DC00002DE9F05FD1
:10065000894604464FF0000ADFF874B1FB44C0F845
:1006600020A02046E1688847002874D0252806D0BD
:10067000D4E901219047206A401C2062F1E700265E
:100680005F462046E16888472028054607DB312D74
:1006900005D2781910F8200C08B10643F1E7B0072D
:1006A00001D526F00406C4F81CA00027C4F818A041
:1006B0002A2D09D0284609F062F838B304EB8708E0
:1006C000303DC8F8185019E059F8041B204604EBD7
:1006D00087029161E1688847012F054618D1E069DA
:1006E000002820DA26F020061DE0D8F8180000EBDC
:1006F000800005EB40003038C8F818002046E1685B
:100700008847054609F03BF80028EED1012F0AD0B2
:100710002E2D08D12046E16888477F1C0546022F10
:1007200046F02006C4DBA069002803DA404246F008
:100730000106A061F00701D026F010066C2D0BD049
:10074000682D09D04C2D39D06A2D35D0742D35D077
:100750007A2D33D016E038E0E1682F4620468847EE
:10076000B842054609D16C2F26D04FF48060E1686D
:10077000064320468847054604E06C2F1AD04FF404
:10078000807006430DB3A5F14100192802D8203529
:1007900046F400664A462946204626604E46FFF744
:1007A00071FD80B101280BD0F61D26F0070000F185
:1007B000080956E74020E4E78020D8E70020D6E784
:1007C00006F104094DE7284652E7206ABDE8F09F8C
:1007D0002CDC000010B5203AC0F00B80B1E81850B6
:1007E000203AA0E81850B1E81850A0E81850BFF41B
:1007F000F5AF5FEA027C24BFB1E81850A0E81850BA
:1008000044BF18C918C0BDE810405FEA827C24BF0D
:1008100051F8043B40F8043B08BF7047D20728BF9B
:1008200031F8023B48BF11F8012B28BF20F8023BEA
:1008300048BF00F8012B70474FF000020429C0F0B8
:10084000128010F0030C00F01B80CCF1040CBCF102
:10085000020F18BF00F8012BA8BF20F8022BA1EB54
:100860000C0100F00DB85FEAC17C24BF00F8012B39
:1008700000F8012B48BF00F8012B70474FF0000231
:1008800000B5134694469646203922BFA0E80C5086
:10089000A0E80C50B1F12001BFF4F7AF090728BF61
:1008A000A0E80C5048BF0CC05DF804EB890028BFDD
:1008B00040F8042B08BF704748BF20F8022B11F006
:1008C000804F18BF00F8012B704770477047704782
:1008D0002DE9F0470D4699469246044600F124085A
:1008E0000168880604D5E06921F01001216000E06C
:1008F0000120A84201DD471B00E00027A1697A1909
:1009000002EB0900081AA0612078C00602D4204634
:10091000FFF7E4FD002608E0D4E901211AF80600FB
:100920009047206A401C761C20624E45F4DB2078FC
:10093000C0060AD52046FFF7D1FD06E0D4E9012123
:1009400030209047206A401C2062381EA7F1010722
:10095000F4DC07E0D4E9012118F805009047206A8B
:10096000401C2062281EA5F10105F3DC2046FFF79C
:10097000CBFD2078000602D50220BDE8F0870120DB
:10098000FBE710B5436913B1AFF3008001E0FFF757
:10099000CCFD012010BD127800F124010A70002264
:1009A0004A700122EDE711684FF0FF32E9E70000DD
:1009B000074B70B50D467B4400F011F804462846FD
:1009C00000F020F810B14FF0FF3070BD204670BD30
:1009D0002795000001694A1C02610878704700B53C
:1009E0008FB0CDE901310021059105497944CDE968
:1009F000031011466846FFF729FE0FB000BD000046
:100A0000E5FFFFFF007B00F0800070470048704763
:100A1000203501207546FFF7F9FFAE46050069460F
:100A2000534620F00700854618B020B5FFF7C0FCFC
:100A3000BDE820404FF000064FF000074FF00008DF
:100A40004FF0000B21F00701AC46ACE8C009ACE860
:100A5000C009ACE8C009ACE8C0098D46704710B5C4
:100A60000446AFF300802046BDE81040FFF72ABCE3
:100A70000221962010B506F0E1FC32200CF08AFA33
:100A800002214FF4E17006F0D9FC04214FF4C87044
:100A900006F0D4FC32200CF07DFA0421BDE81040B1
:100AA000822006F0CBBC000010B502F0F5F90E482C
:100AB0000E49B3EE000A027A032A04D8027A12B170
:100AC000407A012808D981ED030A09F013FA084891
:100AD00080ED010A042002E0022081ED020ABDE857
:100AE00010400AF0DFBA0000FC340120D0340020AE
:100AF000103500202DE9F04F2DED068B8FB09FEDC6
:100B0000CF9ACF491C226846FFF764FECD491C22CC
:100B100007A8FFF75FFEDFF828B3CB4CF2EE0A9A86
:100B20009FEDCA0ADFEDCA0AC648B3EE0E1AF1EE0F
:100B3000041A8BEC020A8BED029A80ED001A80ED0C
:100B4000019AC0ED021A0220C4ED029A0AF0AAFA34
:100B500009F078F9BF4DC04E94ED098A08E0287A73
:100B600004280FD2687A02280CD202200CF012FA64
:100B700094ED090A30EE480AB0EEC00A10EE100AF1
:100B8000B042ECDBB54EB64896ED000AD0ED090A4E
:100B90000AF074F909F056F909F0ACF9B14F0420E4
:100BA000A04687ED010AC4ED039A0AF07BFAAE4C29
:100BB00002E002200CF0EEF9B068A042F9DDDFF8A7
:100BC000AC92AB4CDFF8ACA2F0EE048A97ED018A50
:100BD0001EE002200CF0DEF909F0A8FC99F80000F4
:100BE00010B1012814D120E0607810B920780128D4
:100BF00002D02888800702D038EE280A06E0607804
:100C0000012820D120781CE038EE680A87ED010A1F
:100C1000B0685045DDDC98494FF0010A98ED09AA0B
:100C200081F800A008F070FE30E0A07810B9E078FC
:100C30000128E1D028888007DED1A078012802D1E0
:100C4000E0780028E0D02888800BE1D0DCE70220A3
:100C50000CF0A0F909F06AFC99F8000010B1012825
:100C600014D127E0607810B92078012802D02888B4
:100C7000800702D038EE280A06E06078012827D1E4
:100C8000207823E038EE680A87ED010A98ED090A1A
:100C90007A4930EE4A0AB0EEC00A10EE100A8842D5
:100CA000D5DB09F0CFF89FED760A98ED09AA88ED1B
:100CB000030A4CE0A07810B9E0780128DAD028883F
:100CC0008007D7D1A078012802D1E0780028D9D0B8
:100CD0002888800BDAD0D5E702200CF05BF909F008
:100CE00025FC99F8000010B1012838D016E0607892
:100CF00010B92078012802D02888800702D038EE69
:100D0000280A09E06078012801D1207810B12888EC
:100D1000800B34E038EE680A87ED010A98ED090A85
:100D2000584A404630EE4A0AB0EEC00A10EE101A99
:100D3000914201DDC0ED039A90ED090A524930EE6F
:100D40004A0AB0EEC00A10EE100A884203DC4F498E
:100D5000B0688842C0D308F0C9FD4D4D15E0A078B9
:100D600010B9E0780128CAD028884007C7D1A078F8
:100D7000012802D1E0780028CCD02888400B002838
:100D8000C8D1CBE702200CF005F9B068A842F9D32E
:100D90002B481C226946FFF71DFD3E4F87F802A035
:100DA00002E002200CF0F6F8B068A842F9D224491B
:100DB00000251C226846BD70FFF70CFDB6EE000A48
:100DC0008BED000A8BED019A334F8BED020A02E0A6
:100DD00002200CF0DFF8B068B84205D36178002932
:100DE000F6D021780029F3D0B84205D3A0780028A6
:100DF000EED0E0780028EBD01F4844460570022072
:100E0000C8ED029A0AF04EF90D481C226946FFF718
:100E1000E1FC0C481C2207A9FFF7DCFC104884ED1C
:100E2000099A84ED089A80F83050017841F0040165
:100E300001700FB0BDEC068BBDE8F08F0000000024
:100E40007C32012044320120D0340020CDCC8C3FB4
:100E50006F12833BF034012000401C46C82F012054
:100E6000A43401201035002066662A417B00002052
:100E7000A10000203333D33FA000002000009643A0
:100E800000000C4200E0AB4500C0DA453333CBC074
:100E9000000070C138020020666656C02DE9F05F80
:100EA0000025DFF8C4812C462DED048B05E000BF42
:100EB00009F03CFB02200CF06DF898F808000428BB
:100EC000F6D904E009F032FB02200CF063F898F840
:100ED00008000428F6D208F0B5FF644E644F96ED82
:100EE000098A02E002200CF055F896ED090A30EE6E
:100EF000480AB0EEC00A10EE100AB842F2DB042035
:100F00000AF0D0F808F0F6FF5A48F1EE080A80ED32
:100F1000010AC6ED030A08F095FFDFF85CA1574F00
:100F200096ED098A07E002200CF034F85448DAF80C
:100F30000810814209D896ED090A30EE480AB0EE51
:100F4000C00A10EE100AB842EDDBB2EE0A8A0220A7
:100F500086ED028A0AF0A6F808F0D6FC494F4FF455
:100F60007A7900BF01F098FF388810F4C07F01D073
:100F7000641D00E0641C02200CF00CF84C45F1DB11
:100F8000002408F0B3FCDFED408AC346DFF8FC80A4
:100F9000C6ED028A96ED099A06E002200BF0FAFFF0
:100FA0009BF808000A2809D296ED090A30EE490A92
:100FB000B0EEC00A10EE100A4045EEDB08F09AFFD2
:100FC0002C48B34680ED010A042086ED038A0AF01E
:100FD00069F82F4ED04602E002200BF0DBFFD8F874
:100FE0000800B042F8D2DFF898A000BFD8F8081087
:100FF00051450CD802200BF0CDFF01F04DFF2148E8
:10100000007A0A28F2D36D1CEDB2042DEED902202D
:101010005F468BED028A0AF045F808F075FC194D21
:1010200001F03AFF288810F4C07F01D0641D00E071
:10103000641C02200BF0AEFF4C45F1DB08F056FCBF
:101040000220C7ED028A0AF02DF802E002200BF020
:10105000A1FFD8F80800B042F8D2BDEC048BBDE87F
:10106000F05F08F043BC0000F0340120D0340020D1
:101070000000344310350020C82F01200000344404
:101080009A9955C1FC340120000000420080BB4504
:1010900033338BC02DE9F04F2DED048BB0EE408A39
:1010A0008FB0DFEDE38AE34900271C226846FFF793
:1010B00091FBE1491C2207A8FFF78CFBDF4CDE48BF
:1010C000B6EE000AF3EE090A9FEDDD1A94ED059ADB
:1010D000C4ED050A84ED028AD64980ED000AC0ED10
:1010E000018AD84E80ED020A81ED001AF7EE081A47
:1010F000C1ED018AC1ED021ADFF84C83D34D30886F
:10110000C0F3C110032809D1D5ED090A98ED000AF2
:1011100009F0B4FE02E002200BF03CFF307A042814
:10112000F9D3707AB3460228F5D3DFF8249304206C
:1011300095ED090A89ED010A84ED038A09F0B2FFF1
:1011400008F080FEDFF80CA3464602E002200BF018
:1011500021FFB1685145F9DD08F0D6FB022084ED8E
:10116000028A09F09FFF08F06DFEDFF8EC82D4EDF3
:10117000098A02E002200BF00DFF94ED090A30EE1F
:10118000680AB0EEC00A10EE100A4045F2DB08F023
:10119000ADFB84ED038A08F0ADFE0420C84689ED5E
:1011A000010A09F07FFFDFF8B49202E002200BF0A1
:1011B000F1FEB1684945F9DCDFF8A49284ED038AB9
:1011C00002E002200BF0E6FEB0684845F9DD0021A0
:1011D000AA2006F033F9022084ED028A09F062FFAA
:1011E00008F092FBDFF87C924FF47A7A01F054FE1B
:1011F000B9F8000010F4C07F01D07F1D00E07F1C13
:1012000002200BF0C7FE5745F0DB08F06FFBB3EE92
:101210000E0A84ED020A08F015FEDFF84CA2002742
:10122000DFF84892D4ED098A14E002200BF0B2FEF8
:1012300067B994ED090A30EE680AB0EEC00A10EE04
:10124000101A514502DD012784ED028A9BF808003F
:10125000072809D294ED090A30EE680AB0EEC00AF8
:1012600010EE100A4845E0DB08F040FBB2EE0A0A37
:1012700084ED030A08F03EFE0420474688ED010A8B
:1012800009F010FF7A48007830B1012813D01AE035
:1012900005200BF07FFE03E0DFF8D8914FF4807853
:1012A0004146484602F00AFC0028F1D10BE0052037
:1012B0000BF070FE01E0DFF8C0812021404602F013
:1012C000FDFB0028F3D108F0BDFDDFF8B08194EDFF
:1012D000098A02E005200BF05DFE94ED090A30EE6C
:1012E000480AB0EEC00A10EE100A4045F2DB00F0EA
:1012F000DFF9FA200BF04EFED5ED090A96ED000A53
:1013000009F0BCFD5E4EB078082804D1287F2A2859
:1013100001D108F0BBF9FFF7ABFB08F093FD00200B
:1013200009F0C0FEB9EE0C0A84ED010A84ED000A52
:10133000DFF8508194ED098A02E002200BF02AFECA
:1013400094ED090A38EE400AB0EEC00A10EE100A19
:101350004045F2DB00F0ACF964200BF01BFE2420CA
:101360000AF09CFC9FED480A07F046FBDFF81C8161
:1013700002E002200BF00EFE08F0BCFDD7ED000AE3
:1013800030EEC00AB0EEC00A10EE100A4045F0DCA4
:10139000B07808281BD1287F2A2818D13C484078EB
:1013A000072814D2DFE800F00406080A0C0E10002B
:1013B00015200AE0132008E0122006E00F2004E0C8
:1013C000112002E00C2000E00A200AF067FC3148FE
:1013D000407808B900F0F8F908F08CFDF2EE0C0A3C
:1013E00087ED010A0420C4ED030A09F05BFE002129
:1013F0004FF4877006F022F8B1EE080AFFF74EFDB1
:101400000C481C226946FFF7E5F90B481C2207A986
:10141000FFF7E0F984ED059A002085F83000287880
:1014200040F0040028700FB0BDEC048BBDE8F08FD5
:1014300000000000443201207C320120D034002022
:101440000000D441F0340120C82F0120A434012031
:10145000103500203333A541000096453333D33F88
:1014600066662A41FC34012000409C450080BB4553
:101470007B000020000C0240000802400080AC44C9
:10148000C00000200000B443000033430000A0402F
:10149000AB0000205A0200202DE9F04138491C22FF
:1014A0002DED028B88B06846FFF794F9354D394829
:1014B000B3EE000A85ED020A344E354C00889FEDEC
:1014C000328AC0F3C110032805D1D6ED090A94ED84
:1014D000000A09F0D3FC2A48DFED2F0AB3EE040A14
:1014E00080ED028A80EC020A08F00EFA2B4F04E02D
:1014F000FFF7DAFA02200BF04DFDA068B842F7DBE7
:10150000274FA068B84205D2FFF7CEFA02200BF0B1
:1015100041FDF6E7FFF7C8FADFF88880224F95ED26
:10152000098A0EE0FFF7C0FA02200BF033FD95EDBB
:10153000090A30EE480AB0EEC00A10EE100A404523
:1015400002DCA068B842EDD208F0D0F9022009F020
:10155000A9FDB2EE0A0A85ED020A08F073FC00202C
:1015600086F8300006481C226946FFF733F93078C8
:1015700040F00400307008B0BDEC028BBDE8F08193
:1015800044320120D034002000000000A4340120A7
:10159000C82F0120F03401206F12833BCDCCD44002
:1015A0003333EBC000801D443333CBC02DE9F0470B
:1015B000384F9FED371AF3EE040A374E2DED028BAC
:1015C00088B060EE018AC7ED020A02E002200BF04B
:1015D000E1FC307A0428F9D9707A0128F6D008F0B5
:1015E00093F92E491C226846FFF7F4F8B2EE040A7C
:1015F000022087ED020A09F055FD294C0025DFF88D
:10160000A4804FF0010A97ED098A4FF0060912E015
:1016100002200BF0BFFC3088400702D03088400B1E
:1016200029D03088400B02D03088400728D025715F
:10163000657188F8045097ED090A30EE480AB0EE5B
:10164000C00AB4EEE80AF1EE10FAE1D313481C2206
:101650006946FFF7BFF8144E86F8305008F046F997
:1016600025716571307840F00400307008B0BDEC31
:10167000028BBDE8F08784F804A04946657103E059
:101680002571494684F805A088F80410D3E70000C6
:1016900033337D42D0340020F03401204432012025
:1016A0003802002088340020A4340120FEE7000026
:1016B000012010B509F0F6FC0021012009F088F99D
:1016C0000021022009F084F90021032009F080F9AB
:1016D0000021042009F07CF909F04CF9024A034B7F
:1016E00007CA83E8070010BD58E20008083501204A
:1016F000134810B5007800B35FF0000004F084FEDA
:101700001048DFED110A114A90ED090A30EE200A67
:1017100010EE101A80ED090A914205DDDFED0C0A8A
:1017200030EE600A80ED090A0A48F0EE400A90EDBA
:10173000000ABDE8104009F0A1BB0120DEE700006F
:101740007B000020A4340120000034430000344317
:101750000000B443C82F012070B505461548164C4B
:101760000021164E0078401E6073A173307F2978E7
:1017700008F0E2FB124900EB4000182201EBC00127
:1017800006F13400FFF726F896ED0F0A0D4A86EDB4
:10179000090AA17B607B431C6E5C491C1654C9B2CC
:1017A000A1736373685CFF28F3D1C8B2D9B2285C17
:1017B000505470BD5A02002038020020A434012089
:1017C00044280020600200202DE9F041FA49F84C3D
:1017D000F84AA1F1140023460D7894F802C05E780F
:1017E000177FBCF1080F4B788A784078C97809D008
:1017F000BCF1070F6FD12A2F6DD1052E09D0062E0F
:101800006AD097E2312F66D1052E6ED0062E6DD0AC
:1018100090E2012826D009282FD00E2838D0102891
:1018200041D01B284AD001281ED0092827D00E28D5
:1018300030D0102839D01B2842D0012816D00928D2
:101840001FD00E2828D0102831D01B283AD00128CC
:101850000ED0092817D00E2820D0102829D01B28F8
:1018600032D067E2012D06D0012B32D0012A3ED0C2
:10187000012946D05EE2D1485AE2012D06D0012B63
:101880002BD0012A35D001293DD053E2CC484FE27C
:10189000012D06D0012B22D0012A2CD0012934D0D1
:1018A00048E2C84844E2012D06D0012B19D0012A94
:1018B00023D001292BD03DE2C34839E2012D06D0C7
:1018C000012B10D0012A1AD0012922D032E2BF48C0
:1018D0002EE2BF482CE234E29BE0BE4828E2BE483C
:1018E00026E2BE4824E2BE4822E214E00FE1BD48F1
:1018F0001EE2BD481CE2BD481AE2BD4818E2BD48E0
:1019000016E2BD4814E2BD4812E2BD4810E2BD48EF
:101910000EE2BD480CE2012826D009282FD00E285F
:1019200038D0102841D01B284AD001281ED00928C1
:1019300027D00E2830D0102839D01B2842D00128BB
:1019400016D009281FD00E2828D0102831D01B28E7
:101950003AD001280ED0092817D00E2820D0102800
:1019600029D01B2832D0E5E1012D06D0012B32D041
:10197000012A3AD0012942D0DCE1A448D8E1012D66
:1019800006D0012B29D0012A31D0012939D0D1E14B
:101990009F48CDE1012D06D0012B20D0012A28D06F
:1019A000012930D0C6E19B48C2E1012D06D0012BB0
:1019B00017D0012A1FD0012927D0BBE19648B7E1F3
:1019C000012D06D0012B0ED0012A16D001291ED0E0
:1019D000B0E19248ACE19248AAE19248A8E192486D
:1019E000A6E19248A4E19248A2E19248A0E192487F
:1019F0009EE192489CE192489AE1924898E192488F
:101A000096E1924894E1924892E1924890E192489E
:101A10008EE1012826D009282FD00E2838D0102892
:101A200041D01B284AD001281ED0092827D00E28D3
:101A300030D0102839D01B2842D0012816D00928D0
:101A40001FD00E2828D0102831D01B283AD00128CA
:101A50000ED0092817D00E2820D0102829D01B28F6
:101A600032D067E1012D06D0012B32D0012A3AD0C5
:101A7000012942D05EE179485AE1012D06D0012BBF
:101A800029D0012A31D0012939D053E174484FE1DE
:101A9000012D06D0012B20D0012A28D0012930D0D9
:101AA00048E1704844E1012D06D0012B17D0012AEE
:101AB0001FD0012927D03DE16B4839E1012D06D027
:101AC000012B0ED0012A16D001291ED032E1674821
:101AD0002EE167482CE167482AE1674828E167481A
:101AE00026E1674824E1674822E1674820E167482A
:101AF0001EE167481CE167481AE1674818E167483A
:101B000016E1674814E1674812E1674810E10128CF
:101B100026D009282FD00E2836D0102835D01B28E3
:101B200034D001281ED0092827D00E282FD0102805
:101B30002ED01B282DD0012816D009281FD00E2802
:101B400028D0102827D01B2826D001280ED00928FD
:101B500017D00E2821D0102820D01B281FD0E9E054
:101B6000012D06D0012B1BD0012A1AD0012919D032
:101B7000E0E04E48DCE0012D15D0012B14D0012A05
:101B800013D0012912D0D5E094E09EE0A8E093E0C4
:101B90009DE0A7E092E09CE0A6E091E09BE0A5E05C
:101BA000A9E0B2E0BBE083E0A7E0B0E0B9E000006C
:101BB000C0000020A43401204C02002004090020B1
:101BC00068090020CC090020300A0020940A002077
:101BD000F80A00205C0B0020C00B0020240C002021
:101BE000880C0020EC0C0020500D0020B40D0020CB
:101BF000180E00207C0E0020E00E0020440F002074
:101C0000A80F00200C10002070100020D41000201D
:101C1000381100209C1100200012002064120020C6
:101C2000C81200202C13002090130020F413002071
:101C300058140020BC14002020150020841500201A
:101C4000E81500204C160020B016002014170020C4
:101C500078170020DC17002040180020A41800206E
:101C6000081900206C190020D0190020341A002017
:101C7000981A0020FC1A0020601B0020C41B0020C2
:101C8000281C00208C1C0020F01C0020541D00206B
:101C9000B81D00201C1E0020801E0020E41E002015
:101CA000481F0020AC1F00201020002074200020BE
:101CB00025483DE0012D06D0012B20D0012A28D057
:101CC000012930D036E0214832E0012D06D0012B29
:101CD00017D0012A1FD0012927D02BE01C4827E06C
:101CE000012D06D0012B0ED0012A16D001291ED0BD
:101CF00020E018481CE018481AE0184818E0184876
:101D000016E0184814E0184812E0184810E0184887
:101D10000EE018480CE018480AE0184808E0184897
:101D200006E0184804E0184802E0184800E01848A7
:101D3000FFF712FD1749002008704870207060708E
:101D4000A070BDE8F0810000D82000203C210020D8
:101D5000A02100200422002068220020CC220020A4
:101D60003023002094230020F82300205C2400204E
:101D7000C02400202425002088250020EC250020F8
:101D800050260020B4260020182700207C270020A1
:101D9000E0270020AB0000201848002370B5194A46
:101DA00001781748891CC172037352781649052AB5
:101DB00013D0062A10D1154CDBB2C27A561CE55C52
:101DC0005B1C8D54DBB20373C672E25CFF2AF3D155
:101DD000DAB2F0B2A25C0A5470BD0D4A047BC37A39
:101DE0005D1C165D641CCE54E4B20473C572135DB1
:101DF000FF2BF3D1E3B2E8B2D25CECE75A02002049
:101E000038020020C000002060020020A00800204E
:101E10003C0800202DE9F04FDFF8FCA32DED0A8BE4
:101E200095B09FEDFE8A0127FD480AF13401007844
:101E3000009180B9FA48811D097807709AF81C0052
:101E400008F07AF800EB4001F648182200EBC101D7
:101E50000098FEF7BFFCF24D0026DFF8CCB3AD1FB3
:101E6000DFF8C893DFF8C883F24C6879B3EE079ABD
:101E70000128B3EE06CAF1EE048AB3EE09AA02D035
:101E8000002873D0C2E0022009F00CF95046DFEDC3
:101E9000EA0ABAF8281094ED091A00EE101AB0EE0A
:101EA000C11AB8EE400A20EE200AB4EEC01AF1EED4
:101EB00010FA34DB6E71BAF8200080050CD5B8F842
:101EC0000000C0F3C110032806D1DC48DAED090A8E
:101ED00090ED000A08F0D2FF08F00CF8DAED0F0AD6
:101EE00009F00EF8B0EEC00A10EE100A58450BDDEE
:101EF000DAED0F0A9AED090A09F002F8B0EEC00A0D
:101F000010EE100A584504DC9AED0B0A84ED020A23
:101F10007CE0DAF8200084ED029A010576E040F6D4
:101F2000E412914226D3297921BB90ED090AD0ED24
:101F3000030AB4EE600AF1EE10FA1BD0A968B1F5FD
:101F4000FA7F14DAB8F8000010F4C07F01D0491D00
:101F500000E0491CA960B3EE0A0A89ED000A89ED88
:101F6000018AC9ED028A84ED02AA4FE00CE02F71CC
:101F7000AE6000E02F7189ED00CAB2EE000A89ED73
:101F8000018A89ED020ABFE7DAF82000020202D5D1
:101F9000AB48077008E0C20101D5022202E08001CF
:101FA00002D50322A64802709AF8300008F064FCBB
:101FB0009AF8000041072DD4010614D4800612D4EB
:101FC00000F06AFF07F0EEFC90B1232009F066FEF6
:101FD0009C4981ED008A9AF8001041F004018AF8CA
:101FE00000104A0716D498490878012804D0FDE368
:101FF00002200AF0CFFFE3E7924A82ED008A9AF8C6
:10200000002042F004028AF800200E709AF80000C6
:102010004007ECD582499AF80020491D481F22F05C
:1020200004028AF800200078405CFF2870D007F096
:1020300061FFDAED0F0A08F063FFB0EEC00A10EEA0
:10204000100A584554DBDAED0F0A9AED090A08F038
:1020500057FFB0EEC00A10EE100A584548DBDAF818
:1020600038105046C90243D4037FEBB3082B3FD04E
:102070006B49CA1C0978895C1D2939D01E2937D0C3
:10208000202935D071490978012931D0DFED70AAB6
:10209000DAF82020DFF8BCB110047CD5042009F068
:1020A00001F86D491C2209A8FEF794FBDFED6B0ACD
:1020B00069494FF0804BB3EE040A6648D146C1ED42
:1020C00000AA94ED091A94ED021AD4ED068A84ED63
:1020D000031A94ED031A61EE200AC4ED060A84ED9A
:1020E0000C0A9AED0F0A00E002E080ED010A55E0CB
:1020F000564806706F719AF81C100D2916D19AF87F
:1021000034000C28FAD1DFF85881D4ED098A03E0B5
:10211000F8E302200AF03EFF94ED090A30EE680A67
:10212000B0EEC00A10EE100A4045F2DB8CE398F8DE
:1021300009204146012A2CD1098811F4FC6F28D0CE
:102140004448D9ED090A90ED010A08F0D9FEB0EE35
:10215000C00A10EE100A0BF075FE9FED421B53EC07
:10216000112B0BF071FD41EC190B07F0C3FE394840
:10217000F0EE400A90ED010A08F0C2FEB0EEC00A8F
:1021800010EE100A0BF05EFE53EC192B0BF020FD45
:1021900010D3022000E01EE00AF0FCFE07F0AAFEC9
:1021A000D9ED0F0A30EEC00AB0EEC00A10EE101AD8
:1021B0005945BCDC1C2102A8FEF760FB2B481C2201
:1021C00002A9FEF707FB24481C2209A9FEF702FB1F
:1021D000C4ED068A38E3DFED269AD00351467CD55C
:1021E000124842F480529FED230A90ED00AA90ED30
:1021F000059A80ED000A80ED018AC0ED028A94ED17
:10220000020A20EE290A80ED050A0A629AED0F0AF9
:102210008BED010A30E00000A43401200000000032
:102220005A020020442800200000204144320120AE
:10223000F0340120D03400203333333FC82F012045
:1022400080340020883400203B0200203802002027
:102250003333733F103500207C3201206666E63E42
:102260000000F043000000A09999C93FEC32012022
:102270009A99193F00008C4207F0E4FDDFF87C9446
:10228000D4ED098A02E002200AF084FE94ED090AE6
:1022900030EE680AB0EEC00A10EE100A4845F2DBD4
:1022A0004FEA0B0907F026FEF0EE400A99ED010A0D
:1022B00008F026FEB0EEC00A10EE100AB0F1814F11
:1022C0002ADD02200AF066FE08F030F998F80910BD
:1022D00040460129E6D1008800E029E010F4C07FE3
:1022E000E0D007F007FEF0EE400A99ED010A08F091
:1022F00007FEF0EEC08A99ED010ADAED090A08F04E
:10230000FFFDB0EEC00ADFEDFE0A20EE200AF4EE7B
:10231000C08AF1EE10FAC5D2FA49DAF8202022F488
:102320008052CAF8202081ED00AA81ED059A8BE247
:1023300090037DD594ED099A99ED00AAD9ED058A0F
:102340000B2B03D00DE002200AF024FE94ED090AC5
:10235000ED4830EE490AB0EEC00A10EE101A814284
:10236000F1DB9FEDEA0AE7485A46F2EE040A4FF025
:10237000814B914680ED000A80ED018AC0ED020A92
:1023800094ED020A20EE290A80ED050ADAF8200011
:1023900040F40050CAF820009AED0F0A82ED010ABD
:1023A00037E002200AF0F6FD08F0C0F898F80910AE
:1023B0004046012902D0417A02292AD1008810F42E
:1023C000FC6F26D0DAED090A99ED010A08F098FDB4
:1023D000B0EEC00A10EE100A0BF034FD9FEDCC1BDE
:1023E00053EC112B0BF030FC41EC190B07F082FD84
:1023F000F0EE400A99ED010A08F082FDB0EEC00A45
:1024000010EE100A0BF01EFD53EC192B0BF0E0FB45
:102410000DD307F06FFDF0EE400A99ED010A08F0C8
:102420006FFDB0EEC00A10EE100A5845B9DC00E0AE
:102430000BE0B449DAF8202022F40052CAF8202038
:1024400081ED00AAC1ED058AFEE1DAED090AB0EEE0
:102450006C0AF0EE608A04F0C5FB9AF81C00B04AE2
:10246000DFF8C0922B289FEDACBADFEDAC9AF0EE0E
:1024700040CAF2EE0EBA02D00F2809D013E09AF843
:102480003430212B0FD19AF804102A2955D00AE0B4
:102490009AF83410102906D199F80010012902D1B8
:1024A0005178062949D09AF8043051462E2B01D193
:1024B0002F2802D030280BD019E09AF834002128B8
:1024C00055D199F8000028BB9078082835D04EE007
:1024D00091F834C0BCF1330F09D199F800C0BCF1B8
:1024E000010F04D192F802C0BCF1070F25D00C2BCC
:1024F00001D1192806D02D280DD0182817D00F2863
:1025000031D034E09AF834001B2830D199F800001B
:1025100001280FD02BE09AF83400262827D199F80B
:102520000000012823D19078062806D01FE00A2B4E
:10253000ECD01CE05078052819D12F70C4ED03BAF7
:1025400007F0D8FC784880ED010A042008F0AAFDC5
:102550009AF81C00D4ED098A0A283DD02B2855D0C2
:102560000A283DD056E09AF83400112817D0687830
:10257000012816D0DAED0F0AB0EE680A08F0C0FCA8
:10258000F0EEC08ADAED0F0AB0EE6C0A08F0B8FC83
:10259000B0EEC00AF4EEC08AF1EE10FACDDC2E7077
:1025A00001E02E706E70BAF8200040057DD5C4EDB4
:1025B00003BA07F09FFC5C4880ED010A042008F094
:1025C00071FD9AF81C10D1465848D4ED098A0629A5
:1025D0006CD00F296BD054E19AF83400092808D048
:1025E0009AF8340018283AD014E002200AF0D2FCFD
:1025F00001E0DFF83CB194ED090A30EE680AB0EE74
:10260000C00A10EE101A5945EFDB34E09AF8340096
:102610002A2813D0DFF81CB194ED090A30EE680ABD
:10262000B0EEC00A10EE100A584524DA02200AF073
:10263000B1FCF1E702200AF0ADFC01E0DFF8F8B0F0
:1026400094ED090A30EE680AB0EEC00A10EE101AD6
:102650005945EFDB0FE002200AF09CFC01E0DFF8B7
:10266000DCB094ED090A30EE680AB0EEC00A10EE54
:10267000101A5945EFDB32491C2209A8FEF7AAF8C7
:1026800094ED050A9AF804105046BCEEC00A2129C0
:1026900010EE101A01F0FF0B06D1017F2B2903D198
:1026A00090F834102A2968D002E083E1CDE0E2E01E
:1026B00084ED05CA2249B7EE080A81ED000A81EDD2
:1026C00001BA81ED028A99F80010DAED098AA1B108
:1026D0005FF0000003F098FEF0EE680AB0EE680AC2
:1026E00004F080FADFED170A9AED090A034A504612
:1026F00030EE200A10EE101A26E041E000003443CC
:10270000CDCCCC3E443201200000964300008242F2
:10271000000000000000E03F17B7D1390000B443CB
:10272000C00000207B000020103500200000A544E0
:10273000000096440080BB440000E1440000614476
:10274000603201200000344391428AED090A03DD22
:1027500030EE690A80ED090AF948D146DAED090A36
:1027600090ED000A08F08AFBF64899ED0F0A80ED1B
:10277000000A032008F096FC3BE084ED05AA99E7E7
:102780000120A7E707F0D2FE98F80910404601297A
:102790002AD1008810F4C07F26D0D9ED090A99ED1E
:1027A0000F0A08F0ADFBB0EEC00A10EE100A0BF0F5
:1027B00049FB9FEDE51B53EC112B0BF045FA41EC67
:1027C000190B07F097FBF0EE400A99ED0F0A08F09D
:1027D00097FBB0EEC00A10EE100A0BF033FB53EC7F
:1027E000192B0BF0F5F913D3022000E0BDE20AF03B
:1027F000D1FB07F07FFBF0EE400A99ED0F0A08F0DD
:102800007FFBB0EEC00A10EE100AB0F17F5FB9DCBA
:10281000CB48D9ED0F0A90ED000A08F02FFB1C21E0
:1028200002A8FEF72BF8CA481C2202A9FDF7D2FF26
:1028300000EE10BAC7481C2209A9B8EE400A84ED80
:10284000050AFDF7C7FF2E7043E299F834100729F7
:1028500004D016E002200AF09DFB01E0DFF8F8B298
:1028600094ED090A30EE680AB0EEC00A10EE100AC4
:102870005845EFDB23E099F83410102914D01129C2
:1028800012D0834694ED090A30EE680AB0EEC00A11
:1028900010EE100A584512DA02200AF07BFBF1E72D
:1028A00002200AF077FB00E0834694ED090A30EE3F
:1028B000680AB0EEC00A10EE100A5845F0DBA549D0
:1028C0001C2202A8FDF786FF9FEDA40AA148CA4674
:1028D000D4ED050A84ED05AA80ED000A80ED01BA69
:1028E000BCEEE00A80ED028ADFF8589210EE100A82
:1028F000DAED0F0A00F0FF0B0320C9ED000A08F023
:10290000D1FB39E032E202200AF044FB07F00EFE70
:1029100098F80910404601292ED1008810F4C07F94
:102920002AD0DAED090A99ED000A08F0E9FAB0EECA
:10293000C00A10EE100A0BF085FA9FED891B53ECCC
:10294000112B0BF081F941EC190B07F0D3FAF0EEE3
:10295000400A99ED000A08F0D3FAB0EEC00A10EE72
:10296000100A0BF06FFA53EC192B0BF031F903D26C
:10297000212009F093F90EE007F0BCFAF0EE400ACE
:1029800099ED000A08F0BCFAB0EEC00A10EE100A89
:10299000B0F1804FB7DC1E2009F080F900EE10BACC
:1029A0006C481C2202A9B8EE400A84ED050AFDF726
:1029B00011FF8EE16C491C2209A8FDF70BFF504660
:1029C0009FED6A0ADFED6A0A9AF81C1094ED06AAD8
:1029D0000B290CD00A290FD0022914D00B2925D09D
:1029E0000A2923D00D2917D0022910D018E090F819
:1029F0003410052904D019E090F834100B2915D1B2
:102A00009FED5C1A14E090F8341004290ED090F871
:102A10003410012910D003E090F83410082905D0B3
:102A200099F8001071B3B6EE081A01E09FED521A42
:102A30004D4981ED001A02E04B49C1ED00AA81ED3C
:102A4000010A3F48D14681ED028AC4ED060ADAED5B
:102A5000090A90ED000A08F011FA99ED090A04201C
:102A60008BED010A08F01EFB99F804104846D4EDDE
:102A7000098A1A2909D032291ED00B2933D00A29F4
:102A800050D052E09FED3D1AD2E7017F19294CD179
:102A900099F83400132803D097E002200AF07AFA5C
:102AA00094ED090A364830EE680AB0EEC00A10EE1E
:102AB000101A8142F1DB88E0017F182935D199F89D
:102AC00034000A2803D080E002200AF063FA94ED73
:102AD000090A2C4830EE680AB0EEC00A10EE101A4F
:102AE0008142F1DB71E0017F0C2902D00A2905D077
:102AF0006BE099F83400192808D066E099F83400A2
:102B0000182803D04FE002200AF044FA94ED090A95
:102B10001C4930EE680AB0EEC00A10EE100A884276
:102B2000F1DB52E0017F182904D099F81C000A2833
:102B300039D04AE099F83400322828D045E0000026
:102B4000C82F012010350020000000403333C33F60
:102B5000D0320120603201200000D2446666263F58
:102B6000000000A09999B93F7C3201206F12833B8D
:102B7000000048423333B33F9A99993F6666863FD7
:102B80000000D2430000964302200AF003FA94EDBD
:102B9000090AB24930EE680AB0EEC00A10EE100A17
:102BA0008842F1DB11E099F8340018B10DE0022001
:102BB0000AF0F0F994ED090AA94930EE680AB0EE7E
:102BC000C00A10EE100A8842F1DB07F093F9F0EE2C
:102BD000408AD9ED0F0A99ED090ACA4608F090F922
:102BE00038EE800A9F49D9468BED010A9BED010A18
:102BF00010EE100A8842484604DD90ED010A30EEDE
:102C0000690A0AE090ED010A974910EE102A8A42FB
:102C100005D390ED010A30EE290A80ED010A042067
:102C200084ED039A08F03EFADFF840B235E000BFC9
:102C300007F07CFC98F80910404601292AD1008849
:102C400010F4707F26D0DAED090A99ED010A08F038
:102C500057F9B0EEC00A10EE100A0BF0F3F89FED32
:102C6000841B53EC112B0AF0EFFF41EC190B07F01A
:102C700041F9F0EE400A99ED010A08F041F9B0EE91
:102C8000C00A10EE100A0BF0DDF853EC192B0AF015
:102C90009FFF0ED302200AF07DF907F02BF9D9ED42
:102CA000010A08F02DF9B0EEC00A10EE100A5845DE
:102CB000BEDC1C2102A8FDF7E1FD6F481C2202A921
:102CC000FDF788FD6D481C2209A9FDF783FD84ED01
:102CD00006AA6F7106F00AFE022008F0E3F96849BF
:102CE00018220AF10400D0468946FDF773FD0099C9
:102CF00018224846FDF76EFD624A98ED0B0A911DB9
:102D000084ED020A1078431C095C137098F81C00CB
:102D100007F012F900EB40015B48182200EBC101FB
:102D20000098FDF757FD98F8040018280CD198F882
:102D30001C104046172907D190F83410122903D1EE
:102D40009FED520A88ED0F0A514806712E7180EDF1
:102D5000008A07F077F84F480670AE70EE7098F86A
:102D6000001021F0040188F8001010E0494884EDBB
:102D7000028A84ED038A06702E71FEF799FC022008
:102D80000AF008F93F496F714878401C48709AF87A
:102D90000000D04680062BD53D483A4A80ED008A97
:102DA0006F71911D2E711078431C095C137098F897
:102DB0001C0007F0C1F800EB40013348182200EB7B
:102DC000C1010098FDF706FD98F83400132802D0E1
:102DD0000E2188F8481098F80010022021F02001F8
:102DE00088F8001098ED0B0A84ED020A08F05AF9F1
:102DF00098F8000000062CD52548224A80ED008A6C
:102E00006F71931D2E7111780846401C595C10702B
:102E100098F81C0007F090F800EB40011A481822BF
:102E200000EBC1010098FDF7D5FC98F8000020F0F8
:102E3000800088F8000007F005F898ED0B0A0220E2
:102E400084ED020A15B0BDEC0A8BBDE8F04F08F026
:102E500029B915B0BDEC0A8BBDE8F08F0000964390
:102E60000000704300003443000034C30000A04061
:102E7000000000000000D03FEC3201207C32012035
:102E8000C03401205A0200204428002000000CC356
:102E900088340020803400202DE9F05F794A002535
:102EA00077484FF48041784F2C46DFF8E0914FF699
:102EB000FF7812788B46DFF8D8A1002A7DD000F089
:102EC000FDFD80EA08063846202100F0F7FD86EA7D
:102ED00040063846B91500F0F1FD86EA800638460E
:102EE000102100F0EBFD86EAC0063846802100F094
:102EF000E5FD86EA00164846802100F0DFFD86EAFF
:102F000040163846402100F0D9FD86EA8016574623
:102F10004FF40041504600F0D1FD86EAC016484605
:102F2000202100F0CBFD86EA00264846012100F072
:102F3000C5FD86EA40264846102100F0BFFD86EA1E
:102F400080263846082100F0B9FD86EAC0264846AA
:102F5000082100F0B3FD86EA00363846042100F06F
:102F6000ADFD86EA40364846022100F0A7FD86EA1C
:102F700080365946384600F0A1FD86EAC03080B25E
:102F800044490880012300200E8803FA00F73E42DE
:102F90000AD00E88471C04F1010403FA07F2164216
:102FA000E4B201D16D1CEDB2401CC0B21028EBD3CD
:102FB0004D720C72BDE8F09FFFE700F07FFD88EADC
:102FC000C0363846202100F079FD86EA8036384642
:102FD0004FF4807100F072FD86EA403638461021C9
:102FE00000F06CFD86EA00363846802100F066FD70
:102FF00086EAC0264846802100F060FD86EA8026E9
:103000003846402100F05AFD86EA4020574686B2F5
:1030100050464FF4004100F051FD86EA0026484634
:10302000202100F04BFD86EAC0164846012100F041
:1030300045FD86EA80164846102100F03FFD86EAED
:1030400040163846082100F039FD86EA0016484649
:10305000082100F033FD86EAC0063846042100F05E
:103060002DFD86EA80064846022100F027FD86EA0B
:1030700040065946384600F021FD704080E70000C8
:10308000001002407B00002000040240000C0240BF
:1030900000080240FC340120014800F06BBA000037
:1030A000083B0020014800F065BA0000A83A002063
:1030B000014800F05FBA0000683B00200168182357
:1030C000CAB2103AB2FBF3F2054B6FF30901032ABF
:1030D0009B5CC36500D9091D8165084670470000E7
:1030E0003ADF000810B583694FF0C074826A014668
:1030F000002053B1B3F5005F15D072B1012A0CD096
:10310000022A0AD0032A09D104E01AB1012A06D002
:10311000022A03D1C96AC90100D5012010BDC96ABC
:10312000A142FAD010BD002AF7D0012AF2D0022A1B
:10313000F3D0032AF3D010BD30B50468256825F418
:1031400080252560046863608368402B036803D092
:1031500099600068C26030BD9A600068C16030BD8F
:10316000704700001848002110B501F071FE1648A4
:10317000042101F06DFE144801F07AFC134800218F
:1031800001F066FE1148042101F062FE0F4801F0D3
:103190006FFC0F48002101F05BFE0D48042101F097
:1031A00057FE0B4801F064FC0A48002101F050FE74
:1031B0000848042101F04CFE064801F059FCBDE826
:1031C0001040054801F054BC18350020643500203B
:1031D000B0350020483600202C37002072B6FEE7BC
:1031E00070B501202DED0A8BF0EE419AB0EE60BA79
:1031F000B0EE409A07F056FF7E48B1EE4B0AFDEE66
:10320000E98ABDEEC08A0078012810D006F072FE6F
:10321000F0EE490A07F074FE774D784C9FED78ABDD
:10322000B5EEC00A784EF1EE10FA71DC7AE00120BA
:1032300018EE101A07F0CCFB022018EE101A07F057
:10324000C7FB032018EE901A07F0C2FB042018EE0B
:10325000901A07F0BDFB6D4C02E0022009F09AFEC7
:1032600006F048FE39EE400AB0EEC00A10EE100A31
:10327000A042F2DCBDEC0A8B70BD00BF012018EE4D
:10328000101A07F0A5FB022018EE101A07F0A0FB99
:10329000032018EE901A07F09BFB042018EE901AFA
:1032A00007F096FB94F83000022831D00A282FD07E
:1032B0000F282DD007F03AF9687A012828D12888FC
:1032C00010F4FC6F24D0D4ED090A94ED0F0A07F036
:1032D00017FEB0EEC00A10EE100A0AF0B3FD53EC70
:1032E0001A2B0AF0B1FC41EC1C0B06F003FEF0EEC9
:1032F000400A94ED0F0A07F003FEB0EEC00A10EE8C
:10330000100A0AF09FFD53EC1C2B0AF061FC09D354
:1033100006F0F0FD39EE400AB0EEC00A10EE100AD9
:10332000B042ABDC06F0E6FDF0EE490A07F0E8FD3E
:10333000B5EEC00AF1EE10FA50D39BE7BDEECB8A92
:10334000012018EE101A07F043FB022018EE101AA5
:1033500007F03EFBB1EE690A0320BDEEC08A18EE0D
:10336000101A07F035FB042018EE101A07F030FB96
:1033700094F83000022831D00A282FD00F282DD001
:1033800007F0D4F8687A012828D1288810F4FC6F57
:1033900024D0D4ED090A94ED0F0A07F0B1FDB0EE88
:1033A000C00A10EE100A0AF04DFD53EC1A2B0AF079
:1033B0004BFC41EC180B06F09DFDF0EE400A94ED3D
:1033C0000F0A07F09DFDB0EEC00A10EE100A0AF0D9
:1033D00039FD53EC182B0AF0FBFBAED306F08AFD47
:1033E00039EE400AB0EEC00A10EE100AB042A5DC79
:1033F00040E700000C350020F0340120A434012007
:10340000000000403333D33F0000A0410000A04043
:1034100010B51F4820492DED028BB0EE408A90ED8B
:10342000010A1C4880ED020A91ED000A1B4980ED5B
:10343000060A07F0A9FE184810EE101A184A0838B4
:10344000914280ED010A02DB9FED160A06E010EEC4
:10345000101A154A914203D39FED140A80ED010A18
:103460009FED131AF0EEC80A124980EE810AD0EDE2
:10347000010A20EE200A80ED010A78EE400A38EEBB
:10348000001AC1ED000A81ED011ABDEC028B10BDDE
:10349000F0340120B432012088340020443201206D
:1034A0000000C8420000C8420000C8C20000C8C2F4
:1034B00000004842D03400202DE9F041876D0446D9
:1034C00000F00EFB064694F835000025022806D0D1
:1034D00080206065012084F83450BDE8F0812068C8
:1034E000016821F0160101602068416921F0800126
:1034F0004161206C08B9A06C20B12068016821F0FE
:10350000080101602068016821F0010101600CE000
:1035100000F0E6FA801B052807D920216165032009
:1035200084F8350084F83450D7E720680068C00775
:10353000EED194F85C203F2001219040B86084F8DF
:103540003510002084F83450C7E790F83510022970
:1035500003D08021416501207047052180F8351096
:103560000068016821F00101016000207047406D92
:10357000704700002DE9F84304464FF00009644B02
:103580000820CDF800904FF41652A56D94F85C1009
:103590001B682E68B3FBF2F700FA01F131420FD03D
:1035A00021680A6852070BD50A6822F004020A60F3
:1035B00094F85C108840A860606D40F00100606580
:1035C00094F85C104FF0010808FA01F0304208D07E
:1035D00021684969090604D5A860606D40F00200C1
:1035E000606594F85C1004208840304208D021685F
:1035F0000968890704D5A860606D40F00400606523
:1036000094F85C1010208840304218D02168096876
:10361000090714D5A86020680168490304D500682B
:10362000000308D5A16C07E00168C90503D401684F
:1036300021F008010160216C09B12046884794F807
:103640005C1020208840304231D021680968C906CA
:103650002DD5A86094F8350005282068016806D0AB
:10366000490347D5006800031DD4616C1CE021F0BC
:10367000160101602068416921F080014161206CE0
:1036800008B9A06C20B12068016821F00801016030
:1036900094F85C303F229A40AA6084F8358084F820
:1036A0003490216D1FE0E16B09B120468847606DC1
:1036B00000282BD0606DC00714D0052084F8350099
:1036C0002068016821F0010101600098401C009011
:1036D000B84203D820680068C007F6D184F8358066
:1036E00084F83490E16C002910D001B02046BDE888
:1036F000F04308470168C905D5D4036823F01003D7
:10370000036084F8358084F83490CCE7BDE8F88312
:103710000C0000202DE9F047044600F0E1F90546D1
:1037200064B102214FF0000984F8351084F8349018
:103730002068016821F0010101600EE00120BDE870
:10374000F08700BF00F0CCF9401B052805D92021E7
:103750006165032084F83500F1E720680068C00740
:10376000F0D1D4E90020D4E90251D4E9043C284343
:1037700004F1180519430843116895E8E00140EA8F
:103780000C001C4B2843194040EA060040EA0700A1
:10379000B8F1040F40EA010003D1D4E90B13194337
:1037A0000843106020680126656A4069042D20F0F6
:1037B000070045EA00050CD1D4E90A01054341B1EF
:1037C0002046FFF78FFC20B14020606584F835600B
:1037D000B4E7206845612046FFF770FC94F85C3040
:1037E0003F229A408260C4F8549084F835600020EB
:1037F000A5E700003F8010F02DE9F041044690F865
:10380000340000250128A66D0ED094F835C001279C
:10381000002084F83470BCF1010F07D0022584F831
:1038200034002846BDE8F0810220FBE7022784F837
:10383000357060652046FFF77FFC94F85C103F20F0
:103840008840B0602068016841F01601016020687E
:10385000416941F080014161206C20B1206801681C
:1038600041F0080101602068016841F00101016038
:10387000D7E700002DE9F84FDFF80CB2012403254B
:103880004FF00F0A00220BF1040E00BF0B6804FA80
:1038900002F63340B34278D10F7907F00307012FC6
:1038A00001D0022F1AD187684FEA4209D1F80CC023
:1038B00005FA09F827EA08070CFA09FC4CEA070C94
:1038C000C0F808C0476891F804C0B743CCF3001CA7
:1038D0000CFA02FC4CEA070CC0F804C00E79F6435F
:1038E000B6070BD0C6684FEA420C8F6805FA0CF891
:1038F00026EA080607FA0CF73743C7600E7906F088
:103900000306022E12D1D6084FEA427800EB860653
:1039100000960F69D6F820904FEAD8660AFA06FC9E
:10392000B74029EA0C063743009E37620F790668D4
:103930004FEA420C07F0030705FA0CF807FA0CF7F8
:1039400026EA0806374307604E6816F4403F1CD04D
:103950004E4E376847F480473760366822F00308D8
:10396000970706F480460096494E3F0F4644B146FD
:10397000D6F80868DFF81C810AFA07FC404526EAF9
:103980000C0603D14FF0000C41E076E0DFF808C1EF
:10399000604502D14FF0010C39E0DFF800C160450D
:1039A00002D14FF0020C32E0DFF8F4C0604502D1E2
:1039B0004FF0030C2BE0DFF8ECC0604502D14FF074
:1039C000040C24E0DFF8E0C0604502D14FF0050CA4
:1039D0001DE0DFF8D8C0604502D14FF0060C16E0BC
:1039E000DFF8CCC0604502D14FF0070C0FE0DFF8E4
:1039F000C4C0604502D14FF0080C08E0DFF8B8C041
:103A0000604502D14FF0090C01E04FF00A0C0CFAAE
:103A100007FC4CEA060CC9F808C84F68DBF80060E0
:103A2000FF0226EA030600D51E437746CBF8006066
:103A3000D1F804C0DEF800605FEA8C2C26EA0306A9
:103A400000D51E43DFF840C03E60ACF1040C4F6867
:103A5000DCF80060BF0326EA030600D51E430A4FC8
:103A6000CCF80060083FD1F804C03E685FEACC3C67
:103A700026EA030600D51E433E60521C102AFFF4BE
:103A800005AFBDE8F88F0000083C01404438024013
:103A900000300140000002400004024000080240E3
:103AA000000C0240001002400014024000180240C6
:103AB000001C02400020024000240240006908402F
:103AC00000D001207047426921EA02030A4043EA1C
:103AD0000241816170470AB1816170470904FBE7C7
:103AE000014880687047000000000020024881689B
:103AF000027811448160704700000020032010B557
:103B000000F09AF80F2000F005F800F04FF80020C0
:103B100010BD000030B505461F4887B0016841F46C
:103B200080710160006806A900F48070009001A80F
:103B300000F0E0FB0498B0B100F0FCFB4000174A35
:103B40000021174BB0FBF2F2164840F2E734036055
:103B5000C0E90341521EC0E90121816100F0A2FECB
:103B6000040003D015E000F0E5FBE8E70D4800F0A5
:103B70007FFF04000DD12D2000F030F8102D07D26A
:103B8000002229462D2000F037F80748056000E0A4
:103B9000012407B0204630BD4038024040420F00AB
:103BA00000200040C83B0020040000200A4808B55F
:103BB000016841F080510160006800F08050009081
:103BC0000548001D016841F480410160006800F46F
:103BD0008040009008BD000040380240002809DB0A
:103BE000410900F01F028900012001F1E02190400D
:103BF000C1F80001704700000E4BF0B41B680D4681
:103C0000C3F30223C3F10706042E00D90426191DAD
:103C1000072901D2002300E0DB1E012404FA06F18B
:103C20009C40491E2940641E994014402143F0BC29
:103C300005F094BD0CED00E0064900F0070210B558
:103C40004FF6FF040868044B204040EA0220184366
:103C5000086010BD0CED00E00000FA051848F8B54A
:103C6000016841F0805101600068164C00F08050FE
:103C70000090206840F480302060FFF731FF4FF45F
:103C80007A76054605E000BFFFF72AFF401BB042E9
:103C90000FD86068C003F7D5206840F4003020607A
:103CA000FFF71EFF054606E0FFF71AFF401BB04274
:103CB00001D90320F8BD60688003F5D50020F8BD68
:103CC00040380240007000402DE9F84F044600786B
:103CD000DFF824944FF000063746C0070ED0D9F81D
:103CE000001021F40001C9F80010D9F80010626B2F
:103CF0001143C9F80010606B00B90126FE4D206821
:103D0000843500030ED5E16B286820F44010084389
:103D10002860E06BB0F5801F01D010B102E00126F1
:103D200000E0012720684FF4800BC0020CD5216C05
:103D3000286820F4400008432860206C584501D1D1
:103D4000012601E000B901272068C10100D5012644
:103D5000800666D5E8483830016841F0805101603E
:103D60000068DFF898A300F080500090DAF80010A7
:103D700041F48071CAF80010FFF7B2FE804605E0FA
:103D8000FFF7AEFEA0EB080064287DD8DAF800004B
:103D9000C005F5D5DFF8608308F16808D8F80000A1
:103DA00010F440702AD0218E01F44071814225D058
:103DB000D8F80010D8F8002021F4407142F4803285
:103DC000C8F80020D8F8002022F48032C8F800207B
:103DD000C8F80010D8F80000C0070FD0FFF780FE29
:103DE000824607E0FFF77CFEA0EB0A0141F2883033
:103DF0008142CAD8D8F800008007F3D5206BC0F301
:103E0000012103297ED0D9F8001021F4F811C9F856
:103E10000010228ED8F80010C2F30B021143C8F82C
:103E200000102078C00607D5286820F08070286030
:103E30002868A16B084328602188AF48883049046E
:103E400005D5626E016821F440311143016021887B
:103E5000090405D5A26E016821F4402111430160D7
:103E60002168C90305D5E26E016821F440111143B0
:103E700001602168890305D5226F016821F44001A2
:103E800011430160217800E016E1490605D5626C16
:103E9000016821F00301114301602178090605D56D
:103EA000A26C016821F00C01114301602188C90551
:103EB00005D5E26C016821F03001114301602188D1
:103EC000890505D5226D016821F0C001114301600B
:103ED0002188490505D5626D016821F440711143BF
:103EE00001602188090505D5A26D016821F44061B2
:103EF000114301602188C90407D5E26D016821F4EE
:103F0000405100E04AE0114301602188890405D551
:103F1000226E016821F44041114301602168490289
:103F200005D5A26F016821F080611143016021680D
:103F30004FF0006A890209D5E26F016821F0006143
:103F400011430160E16F514500D1012721680A0743
:103F500000D50127490305D5626F016821F0407142
:103F6000114301602168090206D5D4F88020016858
:103F700021F0805111430160DFF88491012E02D0BD
:103F8000206880017ED5D9F800004E4620F0806080
:103F9000C9F80000FFF7A4FD80460FE0594AD9F8A0
:103FA0000030104023F4F8120243C9F8002030E733
:103FB000FFF796FDA0EB080064287DD8306800016B
:103FC000F6D421784C487C30C90712D0616B81B996
:103FD000237A62680168D0F800C09201C1F3014100
:103FE00042EA0142CCF3036142EA016141EA037112
:103FF000016021680A0303D5E26BB2F5801F04D08B
:10400000C9021AD5216C594517D16368016894F823
:104010000CC002689B01C1F3014143EA0141C2F3B4
:10402000027241EA0C6141EA027101602968626A28
:1040300021F01F01521E114329602168C90110D5CA
:10404000238A62680168D0F800C09201C1F303615D
:1040500042EA034242EA0162CCF3027142EA017190
:104060000160216889010CD56168228A237B94F85C
:1040700008C0890141EA024141EA036141EA0C7149
:10408000016000E011E03168B04641F080613160CC
:10409000FFF726FD064604E0FFF722FD801B64289B
:1040A0000AD8D8F800000001F6D56FB3D9F800009F
:1040B0004E4620F0805000E07BE0C9F80000FFF79A
:1040C0000FFD074605E000BFFFF70AFDC01B64288F
:1040D0006FD83068C0438000F6D50748216880302B
:1040E0000A0301D5E26B1AB1C90225D5216C19BBAF
:1040F00063690168277E08E00838024000700040CC
:1041000000380240FFFCFF0F5AE00268C1F3014192
:104110009B0143EA0143C2F3027143EA076242EAA8
:104120000171016029686FF0FF03A26A21F4F85160
:1041300003EB0222114329602168890212D5E16F45
:1041400051450FD1238C6269016807689201C1F360
:10415000036142EA034242EA0162C7F3027142EAA2
:10416000017101602178090716D561690268D0F8EC
:1041700000C08B01277FC2F30362CCF3014143EA05
:10418000014141EA026141EA077101602868E16A80
:1041900020F4403008432860306840F080503060A0
:1041A000FFF79EFC044607E0FFF79AFC001B64281B
:1041B00002D90320BDE8F88F3068C0438000F3D4F3
:1041C0000020F7E72DE9F04705000F4663D0444E85
:1041D000306800F00F00B84209D2306820F00F00BC
:1041E00038433060306800F00F00B84253D128687F
:1041F0003C4C810712D5400703D5206840F4E050BD
:1042000020602878000703D5206840F460402060D3
:10421000A968206820F0F000084320602878C007D3
:104220002AD0304968680839012810D00968022866
:1042300010D0890700292EDA216821F003010143FB
:104240002160FFF74DFC804641F288390DE0096896
:104250008903EFE78901EDE7FFF742FCA0EB0801D6
:10426000494502D90320BDE8F0876868216801F05C
:104270000C01B1EB800FEFD1306800F00F00B842B5
:104280000BD9306820F00F0038433060306800F000
:104290000F00B84201D00120E5E72878400705D596
:1042A000E968206820F4E05008432060287800077F
:1042B00006D52869216821F4604141EAC0002060E8
:1042C00000F058F82168084AC1F30311515CC84056
:1042D0000649086006480068FFF71CFC0020C2E79A
:1042E000003C02400838024042DF00080C00002079
:1042F000040000200D4A0F2330B503604FF4E05452
:104300000B4B156805F003054560156805F0F005D1
:104310008560156805F4E055C560126804EAD202AC
:104320000261186800F00F00086030BD08380240D4
:10433000003C02400449054809680068044AC1F38A
:104340008221515CC8407047083802400C000020B0
:1043500052DF00080449054809680068044AC1F3AF
:104360004231515CC8407047083802400C000020C0
:1043700052DF0008154910B51548096811F00C0204
:1043800013D04110042A0FD0082A0ED10F4C241F3D
:104390002268236802F03F025B0207D52068C0F361
:1043A0008810A0FB010106E0084610BD2168C1F39A
:1043B0008811A1FB00010023FCF70CF82168C1F370
:1043C0000141491C4900B0FBF1F010BD0838024022
:1043D0000024F4002DE9F84F04004FF000076ED0E0
:1043E0002078DFF868A3AAF10408C007A8F1040543
:1043F0004CD0DAF800105046C1F38101012908D0F1
:104400000068C0F3810002280AD1D8F800004002F9
:1044100006D52868800339D560680028DFD035E0EC
:104420006068B0F5803F0BD010B1B0F5A02F11D06F
:10443000286820F480302860286820F4802002E07A
:10444000286840F480302860606890B1FFF748FB2E
:1044500006460AE0286840F480202860F0E700BFA4
:10446000FFF73EFB801B642872D828688003F7D5CD
:104470000CE0FFF735FB064605E000BFFFF730FB19
:10448000801B6428F0D828688003F7D42078800740
:1044900042D5DAF80010504611F00C0F08D0006831
:1044A000C0F3810002280BD1D8F80000400207D4E5
:1044B0002868800718D5E068012800D114E041E1A0
:1044C000E0680028286817D040F001002860FFF756
:1044D00007FB064605E000BFFFF702FB801B022832
:1044E000C2D828688007F7D52069296821F0F8012B
:1044F00041EAC00028600FE020F001002860FFF7CB
:10450000EFFA064605E000BFFFF7EAFA801B022833
:104510001ED828688007F7D42078000729D58B4853
:1045200061696C3000298146016812D041F00101B7
:104530000160FFF7D5FA064605E000BFFFF7D0FAA5
:10454000801B022804D8D9F800008007F6D510E0B7
:1045500089E021F001010160FFF7C2FA064604E09C
:10456000FFF7BEFA801B02287DD8D9F8000080072B
:10457000F6D4207840076BD5DFF8D09109F13809DF
:10458000D9F80000C0000BD4D9F8001041F08051D8
:10459000C9F80010D9F80000012700F08050009001
:1045A0006B480168C90512D40168834641F48071E3
:1045B0000160FFF795FA064605E000BFFFF790FAA5
:1045C000801B64284FD8DBF80000C005F6D55F4E8D
:1045D000A068683601280AD008B1052811D03068D3
:1045E00020F001003060306820F0040002E0306804
:1045F00040F001003060A068A0B1FFF771FA834677
:104600000CE0306840F004003060F0E7FFF768FA33
:10461000A0EB0B0141F28830814266D830688007F8
:10462000F4D50EE0FFF75CFA834607E0FFF758FA8F
:10463000A0EB0B0141F28830814256D830688007E8
:10464000F4D42FB1D9F8001021F08051C9F800102E
:10465000A069C8B3DAF80010C1F3810102294BD078
:104660000228286800E040E020F08070286003D035
:10467000FFF736FA04463BE0FFF732FA064604E05D
:10468000FFF72EFA801B02282FD828688001F7D464
:10469000D4E90962D4E907012E4B570894F82C207D
:1046A000084303EB074343EA8611084340EA0260EC
:1046B00040F00050C8F80000286840F08070286082
:1046C000FFF70EFA044606E03EE000BFFFF708FAE7
:1046D000001B022809D828688001F7D534E000BF04
:1046E000FFF7FEF9001B022802D90320BDE8F88F6E
:1046F00028688001F4D427E00128D8F8000021D0F0
:10470000E16900F480028A421CD1216A00F03F0274
:104710008A4217D1626A47F6C0710140B1EB821F2D
:1047200010D1A16A4FF0FF3200F4403302EB510187
:10473000B3EB014F06D194F82C1000F07060B0EB91
:10474000016F01D00120D1E70020CFE708380240F7
:10475000007000400000FFFF704770477047000086
:104760002DE9F04390F83C20012A42D0012280F844
:104770003C2051F80C4BDFF880804FF0000991E8A5
:10478000680051E9022723F44073B1F80CC03B43A1
:10479000CF6923F480631343026823F40063234347
:1047A00023F4805343EA050323F4005343EA06034A
:1047B00023F4804343EA07030C3923F47023424572
:1047C00043EA0C4302D00D4CA2420CD18D8C23F451
:1047D0007006D1E9073446EA055121F0807119438A
:1047E00021F000732343536480F83C900020BDE81F
:1047F000F0830220FBE700000000014000040140BC
:10480000F0B590F83C20012A3BD01F4E012480F8DF
:104810003C40022280F83D2002681C4D5368B242A1
:10482000D2F808C001D0AA4203D14F6823F4700324
:104830003B430F6823F070031F4357600268B24286
:1048400013D0B2F1804F10D0114B9A420DD0114BC2
:104850009A420AD0104B9A4207D0AA4205D00F4B79
:104860009A4202D00E4B9A4204D189682CF0800300
:1048700019439160002180F83D4080F83C100846C3
:10488000F0BD0220F0BD0000000001400004014026
:104890000004004000080040000C004000400140BF
:1048A0000018004010B5040003D094F83D0010B18A
:1048B00007E0012010BD002084F83C00204600F0F5
:1048C00023F8022084F83D002068211D03F006FE35
:1048D000012084F8480084F83E0084F83F0084F802
:1048E000400084F8410084F8420084F8430084F8D2
:1048F000440084F8450084F8460084F8470084F8B2
:104900003D00002010BD000008B501683348814219
:104910000FD13348016841F00401016000680022B2
:10492000052100F0040000901E20FFF765F91E200D
:104930004EE02B482B4A001D914226D1016841F0E0
:104940000201016000680022052100F002000090D1
:104950002B20FFF751F92B20FFF740F9002205210A
:104960002C20FFF749F92C20FFF738F900220F21FE
:104970002D20FFF741F92D20FFF730F90022052106
:104980002E20FFF739F92E2022E0174A91420ED14E
:10499000016841F48031016000680022052100F4C3
:1049A000803000901820FFF727F9182010E00F4AF8
:1049B000914211D1016841F4802101600068002218
:1049C000052100F4802000901A20FFF715F91A2025
:1049D000BDE80840FFF702B908BD0000000800402C
:1049E00040380240000401400040014000480140BE
:1049F00090F83D10012901D001207047144B02228C
:104A0000016880F83D20994214D0B1F1804F11D057
:104A1000104881420ED0104881420BD00F4881428D
:104A200008D00F48814205D00E48814202D00E487E
:104A3000814207D188680D4A1040062806D0B0F59B
:104A4000803F03D0086840F00100086000207047F4
:104A5000000001400004004000080040000C00403D
:104A60000004014000400140001800400700010020
:104A700090F83D10012901D001207047174A02210A
:104A800080F83D100168CB6843F00103CB600068FB
:104A9000904214D0B0F1804F11D0114988420ED00D
:104AA000104988420BD01049884208D00F498842EB
:104AB00005D00F49884202D00E49884207D181684B
:104AC0000D4A1140062906D0B1F5803F03D0016898
:104AD00041F001010160002070470000000001402A
:104AE0000004004000080040000C004000040140A9
:104AF00000400140001800400700010070B5044666
:104B000090F83C000025012817D0334B012684F88B
:104B10003C60022084F83D0022689068184020F430
:104B20007F4090600868502838D00DDC20284FD096
:104B300005DC90B3102811D14AE0022070BD302866
:104B400046D040280AD13BE060282FD070280DD0F5
:104B5000B0F5805F03D0B0F5005F12D0012584F876
:104B60003D60002084F83C00284670BD4A682068FB
:104B7000D1E9021303F025FD2068816841F0770137
:104B800009E04A682068D1E9021303F01AFD2068A1
:104B9000816841F480418160E1E719E0CA684968B1
:104BA000206803F055FE2068502106E0CA68496875
:104BB000206803F05EFE2068602103F00BFDCEE765
:104BC000CA684968206803F043FE20684021F4E782
:104BD000226801461046F0E788FFFEFF2DE9F0410C
:104BE00004000D4603D094F83D0018B108E0012000
:104BF000BDE8F081002084F83C00204600F04CF82D
:104C0000244A022084F83D002068816811408160B8
:104C10002068211D03F062FC226840F20336AF6970
:104C200040F60C4C2B684FF2F00EA86891680B43CD
:104C30009169B14341EA07210843D5E9031720EA06
:104C40000C00D5E9076C20EA0E00D2F820E03F0105
:104C500040EA062668686D69314347EA0C3793607D
:104C600023680F4301219F612EF0AA0242EA051337
:104C700022681843106284F8481084F83E1084F8C3
:104C80003F1084F8441084F8451084F83D1000204B
:104C9000AEE70000F8BFFEFF70B586B005461421F0
:104CA0006846FBF7EBFD2B6800246248022560494B
:104CB000012683423BD15E481430026842F0010273
:104CC0000260006800F001000590086840F01000E4
:104CD00008600868694600F0100005904FF42060F5
:104CE0000090CDE901545448CDE90346FEF7C2FDDA
:104CF000002205211820FEF77FFF1820FEF76EFF27
:104D0000002205211920FEF777FF1920FEF766FF24
:104D1000002205211A20FEF76FFF1A20FEF75EFF22
:104D2000002205211B20FEF767FF1B2058E0434AA5
:104D3000B3F1804F424822D0424EB34254D113685F
:104D400043F002031360126802F0020205920A683F
:104D500042F001020A60096801F001010591C021D9
:104D60000091CDE90154CDE903456946FEF782FD86
:104D7000002205211D20FEF73FFF1D2030E01368B3
:104D800043F001031360126802F0010205920A6801
:104D900042F001020A600A6802F0010205920A6804
:104DA00042F002020A60096801F002010591202127
:104DB0000091CDE90154CDE903466946FEF75AFD5D
:104DC00008200090CDE901541F486946CDE903460B
:104DD000FEF750FD002205211C20FEF70DFF1C20D0
:104DE000FEF7FCFE06B070BD184EB342FAD1136850
:104DF00043F008031360126802F0080205920A6883
:104E000042F001020A60096801F0010105910321E5
:104E10000091CDE90154CDE903456946FEF72AFD2D
:104E2000002205213220FEF7E7FE3220D8E70000FD
:104E3000303802400000014000100240403802407B
:104E4000000002400004004000040240000C00404A
:104E500070B504464FF0020094F83E2094F83F509D
:104E600094F8446094F8453021B104290DD0012A0A
:104E70001AD113E0012A17D1012E15D184F83E0072
:104E800084F844000021206820E0012D0CD1012B82
:104E90000AD184F83F0084F8450014E0012D03D1C5
:104EA000012E01D1012B01D0012070BD84F83E00FC
:104EB00084F83F0084F8440084F84500012220680B
:104EC000002103F071FB20680122042103F06CFB38
:104ED0002068016841F001010160002070BD704749
:104EE00070B50446006800250169C943890715D4D7
:104EF000C168C943890711D4EA1E026101212177E3
:104F0000206880698007204602D0FFF7E8FF04E0B0
:104F100000F004F9204600F0C6F925772068016901
:104F2000C943490717D4C168C943490713D40221AB
:104F30006FF00402026121772068806910F4407FDD
:104F4000204602D0FFF7CBFF04E000F0E7F8204650
:104F500000F0A9F9257720680169C943090716D42B
:104F6000C168C943090712D404216FF00802026125
:104F700021772068C0698007204602D0FFF7AFFF85
:104F800004E000F0CBF8204600F08DF9257720688A
:104F90000169C943C90617D4C168C943C90613D4F6
:104FA00008216FF01002026121772068C06910F4B7
:104FB000407F204602D0FFF792FF04E000F0AEF8F9
:104FC000204600F070F9257720680169C943C907B8
:104FD00008D1C168C943C90704D1891E01612046AF
:104FE00000F0DEF920680169C943090609D4C168E7
:104FF000C943090605D46FF0800101612046FFF71F
:10500000ACFB20680169C943C90509D4C168C9431B
:10501000090605D46FF4807101612046FFF79CFBFF
:1050200020680169C943490609D4C168C9434906D2
:1050300005D46FF040010161204600F0BBF9206803
:105040000169C94389060BD4C168C943890607D4DD
:105050006FF0200101612046BDE87040FFF77EBB84
:1050600070BD000030B587B0044614216846FBF7D8
:1050700005FC234A00202368224993424FF0020294
:1050800011D10B6843F008030B60096801F00801B7
:1050900005914FF470410091CDE90120CDE9030263
:1050A0001948694613E0194D0324AB4213D10B682C
:1050B00043F004030B60096801F00401059121022B
:1050C0000091CDE90120CDE9030411486946FEF7BE
:1050D000D1FB07B030BD0F4DAB42FAD10B6843F0A6
:1050E00010030B60096801F0100105916021009127
:1050F000CDE90120CDE9030407486946E7E7000050
:105100000008004030380240000C0240000401401A
:10511000000802400040014000100240704770B596
:10512000044690F83C0000260D4601280BD00120D3
:1051300084F83C000C2A4AD007DC82B1042A20D033
:10514000082A06D131E0022070BD102A53D0142A5B
:1051500063D00126002084F83C00304670BD2068F2
:1051600003F040FA2068816941F0080181612068FC
:10517000816921F00401816120682A6981691143F4
:1051800011E0206803F068FA2068816941F4006149
:1051900081612068816921F48061816120682969C9
:1051A000826942EA01218161D4E7206803F090FA24
:1051B0002068C16941F00801C1612068C16921F01E
:1051C0000401C16120682A69C169114311E02068A6
:1051D00003F0BAFA2068C16941F40061C161206836
:1051E000C16921F48061C16120682969C26942EA0C
:1051F0000121C161AEE7206803F0D2FA2068416D59
:1052000041F0080141652068416D21F004014165CC
:1052100020682A69416D114311E0206803F0ECFA1F
:105220002068416D41F4006141652068416D21F4C1
:105230008061416520682969426D42EA012141652A
:1052400088E710B5040003D094F83D0010B107E0E2
:10525000012010BD002084F83C00204600F022F818
:10526000022084F83D002068211D03F037F9012059
:1052700084F8480084F83E0084F83F0084F8400039
:1052800084F8410084F8420084F8430084F8440024
:1052900084F8450084F8460084F8470084F83D000F
:1052A000002010BD7047704710B504464FF0020251
:1052B00069B1042912D0082917D00C291CD0102953
:1052C00021D094F84300012824D0012010BD94F887
:1052D0003E000128F9D184F83E201DE094F83F00FB
:1052E0000128F2D184F83F2016E094F8400001280C
:1052F000EBD184F840200FE094F841000128E4D17C
:1053000084F8412008E094F842000128DDD184F8B7
:10531000422001E084F843200122206803F044F990
:1053200017492068174A884201D0904203D1436C44
:1053300043F4004343642068884213D0B0F1804FA7
:1053400010D0114988420DD0104988420AD0104926
:10535000884207D0904205D00E49884202D00E49BB
:10536000884207D181680D4A1140062906D0B1F55F
:10537000803F03D0016841F001010160002010BDB1
:10538000000001400004014000040040000800400B
:10539000000C0040004001400018004007000100E0
:1053A00000680349884201D1FEF7A0BB70470000A6
:1053B000002000407047704770B501680446C06F18
:1053C0001025D4F880608968090618D5212816D1DF
:1053D0002068083050E8001F21F0800140E80012EA
:1053E000002AF5D1206F38B1FEF766F820B1206FA2
:1053F000FEF7BDF8202821D0204603F0F4FC2068F9
:105400008068400618D5222E16D12068083050E852
:10541000001F21F0400140E80012002AF5D1606F22
:1054200038B1FEF749F820B1606FFEF7A0F82028E8
:1054300004D0204603F0B1FC002070BDC4F88450B5
:10544000032070BD70470146C06FD1F8801008433B
:10545000704700002DE9F04102680025044640F63F
:105460000F070226D06911689368384205D1830678
:105470007ED58B067CD5A16E1CE1DFF868C203F0F7
:10548000010701EA0C0C57EA0C0C71D05FEAC07CF2
:105490000CD05FEAC15C09D54FF0010CC2F820C006
:1054A000D4F8842042F00102C4F88420820709D590
:1054B000DA0707D022681662D4F8842042F004028A
:1054C000C4F8842042070AD5DA0708D023680422EA
:1054D0001A62D4F8842042F00202C4F88420020741
:1054E0000CD501F020023A4308D0236808221A6242
:1054F000D4F8842042F00802C4F8842002050BD5B9
:105500004A0109D523684FF400621A62D4F8842056
:1055100042F02002C4F88420D4F88420002A36D037
:10552000800605D5880603D5A16E09B120468847B7
:105530002168D4F884008968490602D410F0280F45
:1055400027D0204603F029FC2068806840061BD540
:105550002068083050E8001F21F0400140E80012A8
:10556000002AF5D1606F78B15F490165606F00E096
:1055700015E0FDF7EAFF002809D0606F016D00E03B
:105580002046BDE8F04108472046FFF75BFFBDE835
:10559000F0812046FFF756FFC4F88450F7E7276EE6
:1055A0002023012F7DD1C7067FD5CF067DD51020C2
:1055B000106220688068400643D5616F08684068C3
:1055C0000004000CE3D0B4F858208242DFD9A4F8DC
:1055D0005A00C869B0F5807F2BD0216851E8000FD0
:1055E00020F4807041E80002002AF6D120680830DB
:1055F00050E8001F21F0010140E80012002AF5D117
:105600002068083050E8001F21F0400140E80012F7
:10561000002AF5D1C4F880302566216851E8000FD2
:1056200020F0100041E80002002AF6D1606FFDF77B
:1056300043FF6666B4F85800B4F85A10401A81B2B5
:105640002DE0B4F85800B4F85A10B4F85A20401AB3
:1056500081B2002A9BD0002999D0226852E8000F1D
:1056600020F4907042E80007002FF6D1206800F186
:10567000080050E8002F22F0010240E80027002F28
:10568000F4D1C4F880302566A566226852E8000F80
:1056900020F0100042E80003002BF6D16666204699
:1056A00000E002E0FFF787FE71E7020606D50A0672
:1056B00004D5E16E00297FF463AF68E74006F3D5B7
:1056C0004806F1D52046026852E8001F21F040014B
:1056D00042E80014002CF6D1C367C56600F0FCFA5E
:1056E00055E7000020010004998C000810B5040063
:1056F00002D0E06F10B107E0012010BD002084F857
:105700007800204600F026F82420E0672068016831
:1057100021F001010160204603F016FC0128ECD0C5
:10572000606A10B1204603F031FA2068416821F424
:10573000904141602068816821F02A0181602068E1
:10574000016841F0010101602046BDE8104003F00E
:1057500081BA00002DE9F04FA7B00746142121A817
:10576000FBF78CF884216846FBF788F8ED4C02269D
:10577000ED4903253868103CDFF8A8934FF0080A7C
:1057800088424FF000082DD14015CDF85080009090
:105790006846FEF799FA08B1FDF720FDD9F8001028
:1057A00041F40021C9F80010D9F8000000F40020ED
:1057B0002690206840F004002060206821A900F0B5
:1057C000040026904FF4406081E84101D748CDE9BC
:1057D000245AFEF74FF8002205213420FEF70CFA78
:1057E000342042E0D2494FF4805B884242D1001518
:1057F000CDF8548000906846FEF766FA08B1FDF7D0
:10580000EDFCD9F8001041F48011C9F80010D9F866
:10581000000000F480102690206840F00400206012
:10582000206800F004002690206840F00800206006
:10583000206821A9544600F00800CDE925A0CDE953
:105840002385BA48CDE921B6FEF714F821A9042032
:1058500081E84101B748CDE92454FEF70BF8002256
:1058600005213520FEF7C8F93520FEF7B7F927B036
:10587000BDE8F08FB049884245D16846CDF800B008
:10588000CDF85C80FEF720FA08B1FDF7A7FCD9F847
:10589000001041F08041C9F80010D9F8000000F074
:1058A00080402690206840F01000206020684FF46F
:1058B000C071CDE9211600F01000444621A9CDE9C0
:1058C00025A09E48CDE92385FDF7D4FF9C4D4FF0E0
:1058D00020629C49081585E81600C5E903406C6103
:1058E0002846AC61EC612C626C62FDF713FF08B1D5
:1058F000FDF774FC00227D6752201146AF63FEF76E
:105900007BF95220B1E7904988422BD14014CDF861
:10591000608000906846FEF7D7F908B1FDF75EFC9D
:10592000D9F8001041F00041C9F80010D9F8000082
:1059300000F000402690206840F0100020602068B1
:1059400021A900F0100081E860012495CDE925A08F
:105950007A48FDF78FFF002205215320FEF74CF90E
:10596000532082E779494FF0070B88422DD1402020
:10597000CDF8448000906846FEF7A6F908B1FDF71F
:105980002DFC6848001D016841F0100101600068AD
:1059900000F010002690206840F001002060206890
:1059A00021AA4FF4C061249500F0010082E8420171
:1059B000CDE925B0664821A9FDF75CFF002205214D
:1059C0002520FEF719F925204FE7624988422DD19D
:1059D0008020CDF8488000906846FEF775F908B140
:1059E000FDF7FCFBD9F8001041F40031C9F80010B4
:1059F000D9F8000000F400302690206840F0010043
:105A00002060206821AA0C21249500F0010082E882
:105A10004201CDE925B04E4821A9FDF72BFF002218
:105A200005212620FEF7E8F826201EE74A4988428D
:105A300047D181156846CDF84C800091FEF744F9B6
:105A400008B1FDF7CBFBD9F8001041F48021C9F86B
:105A50000010D9F8000000F480202690206840F063
:105A600002002060206823AA444600F0020026902D
:105A70004FF44060CDE9210682E83008374821A97B
:105A8000FDF7F8FE2E4D4FF000622E49603530399B
:105A9000081585E81600C5E903406C612846AC612D
:105AA000EC612C626C62FDF735FE08B1FDF796FBE8
:105AB0007D6700220521AF632720FEF79DF8272090
:105AC000D3E6274988427FF4D2AEC014CDF858807F
:105AD00000906846FEF7F8F808B1FDF77FFB114823
